:1000000038C1000067C1000065C1000063C1000085
:1000100061C100005FC100005DC100005BC1000064
:1000200059C1000057C1000055C1000053C1000074
:1000300051C100004FC100004DC1000020C30000AD
:1000400049C1000047C1000045C1000043C1000094
:1000500041C100003FC100003DC10000C6C2000018
:1000600039C100000C94BB0B0C94920B33C10000FF
:1000700031C100002FC100002DC100002BC10000C4
:1000800029C1000027C1000025C1000023C10000D4
:1000900021C100001FC100001DC100001BC10000E4
:1000A00019C1000017C1000015C1000013C10000F4
:1000B00011C100000FC100000DC100000BC1000004
:1000C00009C1000007C1000005C1000003C1000014
:1000D00001C10000FFC00000FDC00000FBC0000027
:1000E000F9C00000B901BE01C301CD01D701500222
:1000F000E101E901F101FB0105020F021E022802E4
:10010000500232023C024602940A970A860A8A0A80
:10011000900ACE0A9B0A9F0AA50AA90AAD0AB30A49
:10012000B70ABB0ACE0AC10AC50AC90A0664EC1B93
:100130003C04BC163E3BE5B93CC93C37C29E5A3D27
:10014000660498083EEA69AAAA3E000000803F00C3
:1001500000002100240027002A002D003000330079
:1001600001010000040107010A010000220025002E
:1001700028002B002E003100340002010000050190
:1001800008010B01000020002300260029002C009C
:100190002F003200000100000301060109010505DE
:1001A0000505070508080808020202020A0A0808ED
:1001B000040404040101010101010101030303031B
:1001C00003030303040707070C0C0C0C0C0C0C0CAA
:1001D0000202020206060606060606060B0B0B0BBB
:1001E0000B0B0B0B010210202008081020401020E0
:1001F00040800201020108040201010204081020EB
:1002000040808040201008040201800402018040E8
:100210002010080402010804020101020408102051
:100220004080010204081020408000000A0B0209EF
:100230000C0D0E0807030401000000000000000080
:1002400000000000000000000000000000000000AE
:10025000000000000000121110000000000000006B
:10026000000000000000000000000000000000008E
:10027000880C11241FBECFEFD1E2DEBFCDBF00E05E
:100280000CBF12E0A0E0B2E0EAE9F4E200E00BBF4C
:1002900002C007900D92A834B107D9F723E0A8E473
:1002A000B2E001C01D92A931B207E1F711E0C9E344
:1002B000D1E000E006C021970109802FFE010E94D5
:1002C0003F12C833D10780E00807A9F70E94B50C98
:1002D0000C944B1295CE3FB7F894809156029091B2
:1002E0005702A0915802B091590226B5A89B05C0AB
:1002F0002F3F19F00196A11DB11D3FBFBA2FA92FA5
:10030000982F8827820F911DA11DB11DBC01CD0121
:1003100042E0660F771F881F991F4A95D1F708950D
:100320001F93CF93DF93182FEB0161E00E944C0CD9
:10033000209711F460E004C0CF3FD10539F461E0AB
:10034000812FDF91CF911F910C94F10BE12FF0E001
:10035000E65DFD4FE4914E2F50E0FA013197E23116
:10036000F10508F09DC08827EE58FF4F8F4F0C9481
:100370003F1284B5806884BDC7BD97C084B58062D4
:1003800084BDC8BD92C08091800080688093800049
:10039000D0938900C093880088C0809180008062DB
:1003A00080938000D0938B00C0938A007EC08091A0
:1003B0008000886080938000D0938D00C0938C0073
:1003C00074C08091B00080688093B000C093B30087
:1003D0006CC08091B00080628093B000C093B40084
:1003E00064C080919000806880939000D0939900C1
:1003F000C09398005AC080919000806280939000D2
:10040000D0939B00C0939A0050C080919000886068
:1004100080939000D0939D00C0939C0046C0809133
:10042000A00080688093A0008091A0008F7B8093C3
:10043000A000D093A900C093A80037C08091A0006D
:1004400080628093A000D093AB00C093AA002DC01F
:100450008091A00088608093A000D093AD00C093ED
:10046000AC0023C080912001806880932001D0934C
:100470002901C093280119C08091200180628093D6
:100480002001D0932B01C0932A010FC0809120013D
:10049000886080932001D0932D01C0932C0105C06A
:1004A000C038D1050CF04BCF45CFDF91CF911F91D4
:1004B00008958130910519F0029779F1089568EC5B
:1004C00070E084E02DDF68EC70E086E029DF68EC06
:1004D00070E085E025DF68EC70E087E021DF60E018
:1004E00086E10E94F10B61E087E10E94F10B60E080
:1004F0008AE10E94F10B61E08BE10E94F10B60E068
:1005000088E10E94F10B61E089E10E94F10B60E05B
:100510008CE10E94F10B61E02DC068EC70E084E09A
:10052000FFDE68EC70E086E0FBDE68EC70E085E002
:10053000F7DE68EC70E087E0F3DE61E086E10E94C0
:10054000F10B60E087E10E94F10B61E08AE10E941B
:10055000F10B60E08BE10E94F10B61E088E10E9409
:10056000F10B60E089E10E94F10B61E08CE10E94F7
:10057000F10B60E08DE10C94F10B8F929F92AF92A2
:10058000BF92CF92DF92EF92FF926B017C01A3DECC
:100590004B015C01C114D104E104F104E9F09BDEDC
:1005A000DC01CB0188199909AA09BB09883E93404F
:1005B000A105B10578F321E0C21AD108E108F108DC
:1005C00088EE880E83E0981EA11CB11CC114D104D2
:1005D000E104F10421F7DECFFF90EF90DF90CF90A0
:1005E000BF90AF909F908F9008951F920F920FB67B
:1005F0000F9211242F933F938F939F93AF93BF93A9
:100600008091520290915302A0915402B0915502F0
:100610003091510223E0230F2D3720F40196A11DC4
:10062000B11D05C026E8230F0296A11DB11D209320
:1006300051028093520290935302A0935402B093BC
:1006400055028091560290915702A0915802B091A4
:1006500059020196A11DB11D809356029093570235
:10066000A0935802B0935902BF91AF919F918F917F
:100670003F912F910F900FBE0F901F9018951F92D2
:100680000F920FB60F9211240BB60F922F933F9338
:100690004F935F936F937F938F939F93AF93BF938A
:1006A000EF93FF9380914F02909150028093B2009C
:1006B00080914B0290914C02A0914D02B0914E025C
:1006C0000196A11DB11D80934B0290934C02A09303
:1006D0004D02B0934E0280914B0290914C02A0913A
:1006E0004D02B0914E0280914A0281111AC081E000
:1006F00080934A0280914B0290914C02A0914D024E
:10070000B0914E0280934B0290934C02A0934D0205
:10071000B0934E02E0914802F0914902199510926F
:100720004A02FF91EF91BF91AF919F918F917F917D
:100730006F915F914F913F912F910F900BBE0F9052
:100740000FBE0F901F90189590916E0280916D02D0
:10075000911130C2813009F475C01CF4882341F036
:100760009AC2823009F41AC1833009F477C193C266
:100770004091710280915C0290917002E0915B0265
:10078000A0917202F0916F02242F042E000C330B03
:10079000411109C0811107C0911103C0EE2359F026
:1007A00004C0E11108C091110DC0E1110BC0442338
:1007B000F9F08823E9F044EB50E050936B0240934A
:1007C0006A02BEC04423A1F0882391F0992381F0EE
:1007D000EE2371F040915D02411103C0AA2309F498
:1007E0009DC040915A024111ABC0F111A9C090C007
:1007F00040915D02B9016A0F711DA7FD7A95640FE2
:10080000711D47FD7A95680F711D87FD7A954F2FF1
:100810000F2E000C550B490F511D97FD5A954E0F89
:10082000511DE7FD5A95B0915A024B0F511DB7FD6E
:100830005A95461757070CF46BC0641775070CF4EC
:100840006DC07EC04091710280915C0290917002F7
:10085000E0915B02A0917202F0916F02242F042EAE
:10086000000C330B411109C0811107C0911103C065
:10087000EE2359F004C0E11108C091110BC0E11141
:1008800009C0442309F18823F9F010926B021092F9
:100890006A0256C04423C1F08823B1F09923A1F025
:1008A000EE2391F040915D02411105C0A11103C0FA
:1008B0004DE250E035C040915A02411141C0F11162
:1008C0003FC04BE351E02CC040915D02B9016A0F7B
:1008D000711DA7FD7A95640F711D47FD7A95680F0C
:1008E000711D87FD7A954F2F0F2E000C550B490F68
:1008F000511D97FD5A954E0F511DE7FD5A95B09128
:100900005A024B0F511DB7FD5A95641775071CF419
:1009100041EE50E005C04617570794F447E850E011
:1009200050936B0240936A0240E050E068E473E445
:100930004093660250936702609368027093690265
:100940002A0F311DA7FD3A95290F311D97FD3A95C4
:100950002F0F311DF7FD3A9522303105B4F020916B
:100960005D02082E000C990B820F911D27FD9A95B0
:100970008E0F911DE7FD9A9520915A02820F911DCD
:1009800027FD9A9502970CF093C181E080936E0247
:1009900080916C028F5F80936C02089520917202A7
:1009A000509171023091700240916F02852F052E97
:1009B000000C990B820F911D27FD9A95830F911DB5
:1009C00037FD9A95840F911D47FD9A9560915D02C0
:1009D00070915A0284309105B1F480915C02082E26
:1009E000000C990B860F911D67FD9A95E0915B02B3
:1009F0008E0F911DE7FD9A95870F911D77FD9A95B2
:100A00000097D1F01CC0892B09F0A0C080915C0236
:100A1000082E000C990B860F911D67FD9A95E091A9
:100A20005B028E0F911DE7FD9A95870F911D77FD53
:100A30009A95049709F08AC08AE590E05EC0049711
:100A400009F084C09091640280916302992319F0A7
:100A50008111F2CF61C0882379F365C020917202C1
:100A6000509171023091700240916F02852F052ED6
:100A7000000C990B820F911D27FD9A95830F911DF4
:100A800037FD9A95840F911D47FD9A9560915D02FF
:100A900070915A0284309105B1F480915C02082E65
:100AA000000C990B860F911D67FD9A95E0915B02F2
:100AB0008E0F911DE7FD9A95870F911D77FD9A95F1
:100AC0000097C9F01FC0892B09F040C080915C02DB
:100AD000082E000C990B860F911D67FD9A95E091E9
:100AE0005B028E0F911DE7FD9A95870F911D77FD93
:100AF0009A95049759F58EE091E090936B0280935C
:100B00006A023FC0049711F59091600280915F02E4
:100B1000992339F08111EFCF10926B0210926A0283
:100B200008C0882341F384EB90E090936B0280939C
:100B30006A0280E090E0A8E4B3E4809366029093B8
:100B40006702A0936802B09369021BC0809164029F
:100B500068130BC080915B02681307C0671305C060
:100B6000251303C0231709F49FC0772319F082E0EF
:100B700090E09FDC80916F02882319F081E090E083
:100B800098DC80917102811104C080915C028823FD
:100B900041F08091700281118BC080915B028111C4
:100BA00087C080916C028F5F80936C0281E080939C
:100BB0006E020895813009F442C01CF4882341F08C
:100BC0006AC0823009F455C0833009F45BC063C049
:100BD0002091720280917102082E000C990B820FF5
:100BE000911D27FD9A9520917002820F911D27FD7E
:100BF0009A9520916F02820F911D27FD9A95029779
:100C00000CF456C020915D0280915C02082E000C0D
:100C1000990B820F911D27FD9A9520915B02820FFF
:100C2000911D27FD9A9520915A02820F911D27FD53
:100C30009A9502970CF43CC010926E020895209190
:100C4000720280917102082E000C990B820F911D87
:100C500027FD9A9520917002820F911D27FD9A958C
:100C600020916F02820F911D27FD9A95029754F6ED
:100C70000895809170028111DFCF80915B02811114
:100C8000DBCF0895809171028111D6CF80915C02F3
:100C90008111D2CF089510926602109267021092CD
:100CA0006802109269020895241709F46ACF5DCF93
:100CB00008958F929F92AF92BF92CF92DF92EF9260
:100CC000FF920F931F93CF93DF9300D01F92CDB766
:100CD000DEB74C0188E6881681E09806A8F088E621
:100CE000881681E0980654F088E6881A81E0980A10
:100CF00088E6881681E09806BCF706C088E9881A5D
:100D00008EEF980A97FCFACF77FD07C08B016B3FF7
:100D100071052CF00AEF10E002C008EC10E0680149
:100D2000012E000CEE08FF088DE2881691040CF4E9
:100D30001CC154018DE2A81AB1088DE2A816B104B5
:100D400008F464C1C4018A5591098D32910508F4F3
:100D5000A8C1B401675871096D32710508F4EFC17B
:100D60008A5591098D9708F434C2540181EEA81A6E
:100D7000B1088DE2A816B10408F458C0C4018E5021
:100D800091408D9708F0A0C06BE371E06819790974
:100D9000072E000C880B990B0E94171020E030E002
:100DA00044E353E40E947C0F2BED3FE049E450E420
:100DB0000E94C7100E942A119B01AC01C701B60115
:100DC00029833A834B835C830E94171029813A81DF
:100DD0004B815C810E94C7100E94E40F6B017C0173
:100DE00084E09EDAB60186E09BDAB80185E098DA05
:100DF000B80187E095DA60E086E1F3D461E087E14D
:100E0000F0D461E08AE1EDD460E08BE1EAD461E006
:100E100088E1E7D460E089E1E4D460E08CE1E1D4EA
:100E200061E08DE1DED487E090E01EC2B80184E08D
:100E300077DAB80186E074DAB501BB0C880B990B40
:100E40000E94171020E030E044E353E40E947C0F3E
:100E50002BED3FE049E450E40E94C7100E942A11A4
:100E60009B01AC01C701B60129833A834B835C83A4
:100E70000E94171029813A814B815C810E94C71022
:100E80000E94E40F6B017C0185E04ADAB60187E03D
:100E900047DA60E086E1A5D461E087E1A2D461E0B1
:100EA0008AE19FD460E08BE19CD461E088E199D431
:100EB00060E089E196D460E08CE193D461E08DE15B
:100EC00090D486E090E0D0C1B4016B537140072EFE
:100ED000000C880B990B0E94171020E030E044E3CF
:100EE00053E40E947C0F2BED3FE049E450E40E9464
:100EF000C7100E942A119B01AC01C701B6012983CA
:100F00003A834B835C830E94171029813A814B817D
:100F10005C810E94C7100E94E40F6B017C0184E099
:100F2000FFD9B60186E0FCD9B80185E0F9D9B8014E
:100F300087E0F6D961E086E154D460E087E151D4DE
:100F400060E08AE14ED461E08BE14BD461E088E15E
:100F500048D460E089E145D460E08CE142D461E0AE
:100F60008DE13FD488E090E07FC1B80184E0D8D91A
:100F7000B80186E0D5D96DE270E068197909072ECD
:100F8000000C880B990B0E94171020E030E044E31E
:100F900053E4B2D72BED3FE049E450E40E94C71080
:100FA0000E942A119B01AC01C701B60129833A8333
:100FB0004B835C830E94171029813A814B815C81AD
:100FC0000E94C7100E94E40F6B017C0185E0A8D944
:100FD000B60187E0A5D961E086E103D460E087E14E
:100FE00000D460E08AE1FDD361E08BE1FAD361E0F7
:100FF00088E1F7D360E089E1F4D360E08CE1F1D3DC
:1010000061E08DE1EED381E090E02EC1B80184E093
:1010100087D9B80186E084D9B501BB0C880B990B40
:101020000E94171020E030E044E353E465D72BED35
:101030003FE049E450E40E94C7100E942A119B013E
:10104000AC01C701B60129833A834B835C83EFD798
:1010500029813A814B815C810E94C710B5D76B0111
:101060007C0185E05DD9B60187E05AD961E086E16F
:10107000B8D360E087E1B5D360E08AE1B2D361E044
:101080008BE1AFD360E088E1ACD361E089E1A9D323
:1010900061E08CE1A6D360E08DE1A3D382E090E033
:1010A000E3C067E870E068197909072E000C880B27
:1010B000990BBDD720E030E044E353E41DD72BED7E
:1010C0003FE049E450E40E94C7100E942A119B01AE
:1010D000AC01C701B60129833A834B835C83A7D750
:1010E00029813A814B815C810E94C7106DD76B01C9
:1010F0007C0184E015D9B60186E012D9B80185E0FB
:101100000FD9B80187E00CD961E086E16AD360E0CD
:1011100087E167D360E08AE164D361E08BE161D36A
:1011200060E088E15ED361E089E15BD361E08CE15E
:1011300058D360E08DE155D383E090E095C0072E51
:10114000000C880B990B73D720E030E044E353E4A4
:10115000D3D62BED3FE049E450E40E94C7100E9433
:101160002A119B01AC01C701B60129833A834B8345
:101170005C835DD729813A814B815C810E94C710D5
:1011800023D76B017C0184E0CBD8B60186E0C8D8B8
:10119000B80185E0C5D8B80187E0C2D860E086E133
:1011A00020D361E087E11DD361E08AE11AD360E0DA
:1011B0008BE117D360E088E114D361E089E111D3BA
:1011C00061E08CE10ED360E08DE10BD384E090E030
:1011D0004BC0B80184E0A4D8B80186E0A1D861EE84
:1011E00070E068197909072E000C880B990B1FD73E
:1011F00020E030E044E353E47FD62BED3FE049E4C8
:1012000050E4C5D70E942A119B01AC01C701B60169
:1012100029833A834B835C830AD729813A814B81A6
:101220005C81B5D7D1D66B017C0185E079D8B60158
:1012300087E076D860E086E1D4D261E087E1D1D260
:1012400061E08AE1CED260E08BE1CBD260E088E160
:10125000C8D261E089E1C5D261E08CE1C2D260E030
:101260008DE1BFD285E090E00F900F900F900F902E
:10127000DF91CF911F910F91FF90EF90DF90CF9072
:10128000BF90AF909F908F900895CF92DF92EF9292
:10129000FF920F931F93CF93DF936C017A018B0121
:1012A000C0E0D0E0CE15DF0589F0D8016D918D0149
:1012B000D601ED91FC910190F081E02DC6011995C8
:1012C000892B11F47E0102C02196ECCFC701DF917A
:1012D000CF911F910F91FF90EF90DF90CF900895E5
:1012E000089580E090E00895FC01538D448D252FF2
:1012F00030E0842F90E0821B930B541710F0CF96B0
:10130000089501970895FC01918D828D981761F0E1
:10131000828DDF01A80FB11D5D968C91928D9F5F2C
:101320009F73928F90E008958FEF9FEF0895FC01D7
:10133000918D828D981731F0828DE80FF11D858D8A
:1013400090E008958FEF9FEF0895FC01918D228D1D
:10135000892F90E0805C9F4F821B91098F739927A2
:1013600008958CE792E0F1DF21E0892B09F420E079
:10137000822F0895FC01848DDF01A80FB11DA35AAF
:10138000BF4F2C91848D90E001968F739927848FA5
:10139000A689B7892C93A089B1898C9180648C939C
:1013A000938D848D981306C00288F389E02D808187
:1013B0008F7D80830895EF92FF920F931F93CF93B9
:1013C000DF93EC0181E0888F9B8D8C8D981305C095
:1013D000E889F989808185FD23C0F62E0B8D10E008
:1013E0000F5F1F4F0F731127E02E8C8DE8120BC07B
:1013F0000FB607FCFACFE889F989808185FFF5CF20
:10140000CE01B8DFF2CF8B8DFE01E80FF11DE35A5C
:10141000FF4FF0820B8FEA89FB898081806207C0D1
:10142000EE89FF896083E889F989808180648083FF
:1014300081E090E0DF91CF911F910F91FF90EF90AD
:101440000895CF93DF93EC01888D8823C1F0EA895A
:10145000FB89808185FD05C0A889B9898C9186FDAD
:101460000EC00FB607FCF5CF808185FFF2CFA889AB
:10147000B9898C9185FFEDCFCE017CDFE8CFDF917C
:10148000CF91089580E090E0892B19F06ADF8111F7
:1014900025C080E090E0892B41F080E090E0892B2E
:1014A00021F00E94000081111CC080E090E0892B97
:1014B00041F080E090E0892B21F00E940000811132
:1014C00013C080E090E0892BA1F080E090E0892BB0
:1014D00081F00E94000081110AC008950E9400005E
:1014E000D8CF0E940000E1CF0E940000EACF0C9408
:1014F0000000089590E0FC013197E231F10508F019
:101500004DC08827EC57FF4F8F4FB9C7809180009F
:101510008F7703C0809180008F7D80938000089535
:1015200080918000877FF9CF84B58F7702C084B522
:101530008F7D84BD08958091B0008F7703C0809126
:10154000B0008F7D8093B0000895809190008F77D8
:1015500007C0809190008F7D03C080919000877FAD
:101560008093900008958091A0008F7707C08091AC
:10157000A0008F7D03C08091A000877F8093A00092
:101580000895809120018F7707C0809120018F7D81
:1015900003C080912001877F809320010895CF931D
:1015A000DF93282F30E0F901E65DFD4F8491F901CA
:1015B000EC51FE4FD491F901E256FE4FC491CC2379
:1015C00089F0811197DFEC2FF0E0EE0FFF1FEC5751
:1015D000FE4FA591B491EC91ED2381E090E021F4D0
:1015E00080E002C080E090E0DF91CF910895009705
:1015F00061F0FC0101900020E9F73197AF01481B31
:10160000590BBC018CE792E040CE80E090E0089559
:10161000CF93DF93ECDFEC0187E292E0E8DF8C0F01
:101620009D1FDF91CF9108958F929F92AF92BF92AD
:10163000CF92DF92EF92FF920F931F93CF93DF939E
:10164000CDB7DEB7A1970FB6F894DEBF0FBECDBF02
:101650006C01990FEE08FF08F7FE2FC0E0917C02A5
:10166000F0917D020190F081E02D6DE28CE792E037
:1016700019958C0122273327A9012C193D094E0900
:101680005F0919A2CE0181967C019AE0892E912CE6
:10169000A12CB12CCA01B901A5019401CED6605D7F
:1016A000F70162937F01211531054105510591F73D
:1016B000CF019DDF080F191F1CC0A701960119A2B9
:1016C0008E010F5D1F4F8AE0C82ED12CE12CF12C2A
:1016D000CA01B901A7019601B0D6605DF801629315
:1016E0008F01211531054105510591F7CF017FDFAC
:1016F0008C0187E292E07BDF800F911FA1960FB6ED
:10170000F894DEBF0FBECDBFDF91CF911F910F9137
:10171000FF90EF90DF90CF90BF90AF909F908F9011
:101720000895B5D61F920F920FB60F9211240BB6E3
:101730000F922F933F934F935F936F937F938F936A
:101740009F93AF93BF93EF93FF938CE792E012DEEA
:10175000FF91EF91BF91AF919F918F917F916F9189
:101760005F914F913F912F910F900BBE0F900FBE45
:101770000F901F9018951F920F920FB60F92112481
:101780000BB60F922F938F939F93EF93FF93E0915C
:101790008C02F0918D028081E0919202F09193028F
:1017A00082FD12C09081809195028F5F8F7320918E
:1017B0009602821751F0E0919502F0E0E458FD4F57
:1017C000958F8093950201C08081FF91EF919F9149
:1017D0008F912F910F900BBE0F900FBE0F901F9007
:1017E00018951F93CF93DF93282F30E0F901E65D22
:1017F000FD4F8491F901EC51FE4FD491F901E2566D
:10180000FE4FC491CC23C1F0162F811173DEEC2F53
:10181000F0E0EE0FFF1FE659FE4FA591B4918FB790
:10182000F894111105C09C91ED2FE095E92302C0B9
:10183000EC91ED2BEC938FBFDF91CF911F91089529
:101840006AEF70E084E00E9490016AEF70E086E049
:101850000E9490016AEF70E085E00E9490016AEFBB
:1018600070E087E00E9490016FEF86E1BADF6EEFD3
:1018700087E1B7DF6EEF8AE1B4DF6FEF8BE1B1DFB5
:101880006EEF88E1AEDF6FEF89E1ABDF6FEF8CE1E8
:10189000A8DF6EEF8DE1A5CFCF93DF9390E0FC0141
:1018A000EC51FE4F2491FC01E256FE4F84918823B7
:1018B00061F190E0880F991FFC01E05BFE4FC5913C
:1018C000D491FC01E659FE4FA591B491611109C074
:1018D0009FB7F8948881209582238883EC912E23EA
:1018E0000BC0623061F49FB7F8943881822F8095E5
:1018F00083238883EC912E2B2C939FBF06C08FB738
:10190000F894E8812E2B28838FBFDF91CF91089523
:10191000ECE7F2E01382128288EE93E0A0E0B0E000
:1019200084839583A683B78385E092E09183808347
:1019300085EC90E09587848784EC90E09787868794
:1019400080EC90E0918B808B81EC90E0938B828B8C
:1019500082EC90E0958B848B86EC90E0978B868B65
:10196000118E128E138E148E0895CF93DF9300D0B4
:101970001F92CDB7DEB7789484B5826084BD84B5FC
:10198000816084BD85B5826085BD85B5816085BD7A
:1019900080916E00816080936E0010928100809132
:1019A00081008260809381008091810081608093BA
:1019B0008100809180008160809380008091B100DF
:1019C00084608093B1008091B00081608093B0000A
:1019D000809191008260809391008091910081605C
:1019E000809391008091900081608093900080911D
:1019F000A10082608093A1008091A100816080930A
:101A0000A1008091A00081608093A00080912101BD
:101A10008260809321018091210181608093210166
:101A20008091200181608093200180917A00846000
:101A300080937A0080917A00826080937A0080910E
:101A40007A00816080937A0080917A008068809328
:101A50007A001092C100E0918C02F0918D0282E038
:101A60008083E0918802F09189021082E0918A02DD
:101A7000F0918B028FEC808310929402E09190029F
:101A8000F091910286E08083E0918E02F0918F02C6
:101A9000808180618083E0918E02F0918F0280814D
:101AA00088608083E0918E02F0918F02808180684F
:101AB0008083E0918E02F0918F0280818F7D808300
:101AC00060E082E2E9DE60E083E2E6DE60E084E29C
:101AD000E3DE60E085E2E0DE60E089E2DDDE60E03A
:101AE00088E2DADE60E087E2D7DE60E086E2D4DE1C
:101AF00060E081E2D1DE60E080E2CEDE60E08FE196
:101B0000CBDE60E08EE1C8DE60E08AE2C5DE60E048
:101B10008BE2C2DE60E08CE2BFDE60E08DE2BCDE24
:101B200061E086E1B9DE61E087E1B6DE61E08BE18C
:101B3000B3DE61E08BE1B0DE61E088E1ADDE61E063
:101B400089E1AADE61E08CE1A7DE61E08DE1A4DE3F
:101B500061E084E0A1DE61E086E09EDE61E085E098
:101B60009BDE61E087E098DEE09179020E2E000CAA
:101B7000FF0BED5EFD4F808180936D0211E0C12C63
:101B8000D12C8AE7E82E83E4F82E412C512C90E2E8
:101B9000692E93E4792E812C912C28E4A22E23E443
:101BA000B22E34EB232E312C82E2F9DC80936502D5
:101BB00083E2F5DC8093640284E2F1DC80936302CB
:101BC00085E2EDDC8093620282E2E9DC80936102CF
:101BD00088E2E5DC8093600287E2E1DC80935F02CB
:101BE00086E2DDDC80935E0281E2D9DC482F8093BF
:101BF000720280E24C83D3DC082F809371028FE164
:101C0000CEDC582F809370028EE15983C8DC8A8322
:101C100080936F028AE2C3DC80935D028BE2BFDCBB
:101C200080935C028CE2BBDC80935B028DE2B7DCCC
:101C300080935A024C8168EE73E046039001479FFF
:101C4000300D112474E60702200D311D1124598135
:101C5000C9014AE05402800D911D11246A81860F4A
:101C6000911D67FD9A9590937B0280937A02DCDC4C
:101C700080916E02082E000C990BD6DC80916D02CB
:101C8000082E000C990BD0DC80917902082E000CF4
:101C9000990BCADC80916C02082E000C990BC4DCF5
:101CA00080916D02813029F11CF4882341F0F8C045
:101CB000823009F447C0833009F469C0F1C08091D3
:101CC0000002882309F480C030926B0220926A02DD
:101CD000C0926602D0926702E0926802F0926902B6
:101CE0006AEF70E084EB90E00E94590610920002C7
:101CF0006BC0809100028823A1F010926B021092B9
:101D00006A02C0926602D0926702E0926802F09284
:101D100069026AEF70E080E090E00E94590610923C
:101D200000020E94A40360916A0270916B027B839F
:101D30006A8380917702909178026817790709F099
:101D400067C053C0809100028823A1F08AE590E02B
:101D500090936B0280936A02C0926602D0926702EF
:101D6000E0926802F09269026AEF70E00E94590600
:101D7000109200020E94A40320916A0230916B022B
:101D80003B832A8380917702909178022BC08091C7
:101D900000028823C9F06EE071E070936B026093DB
:101DA0006A028092660290926702A0926802B092E4
:101DB000690268EC70E08EE091E00E945906109292
:101DC000000280E392E024DC0E94A40380916A0276
:101DD00090916B029B838A83809177029091780225
:101DE0002A813B812817390799F420917302309199
:101DF0007402409175025091760260916602709172
:101E00006702809168029091690272D0882369F01C
:101E100060916602709167028091680290916902F8
:101E2000D3D08A819B810E94590620916C02E09157
:101E300079020E2E000CFF0BED5EFD4F82852817F8
:101E400099F0022E000C330B082E000C990B019711
:101E50002817390769F5409266025092670260922E
:101E600068027092690224C0EBDC8AE292E0D0DB67
:101E7000E0917902EF5FE09379020E2E000CFF0BE8
:101E8000ED5EFD4F808180936D0210926C02109385
:101E9000000264EF71E080E090E00E94BD0208C0A3
:101EA0001092660210926702109268021092690204
:101EB00080916A0290916B029093780280937702EE
:101EC0008091660290916702A0916802B0916902C8
:101ED0008093730290937402A0937502B09376027C
:101EE00062E370E080E090E00E94BD02CBDA5CCE5D
:101EF000D9D008F481E008950CD00FC107D140F08B
:101F0000FED030F021F45F3F19F0F0C0511139C11B
:101F1000F3C014D198F39923C9F35523B1F3951B5A
:101F2000550BBB27AA2762177307840738F09F5FFA
:101F30005F4F220F331F441FAA1FA9F333D00E2E69
:101F40003AF0E0E830D091505040E695001CCAF7D6
:101F500029D0FE2F27D0660F771F881FBB1F26179B
:101F600037074807AB07B0E809F0BB0B802DBF016E
:101F7000FF2793585F4F2AF09E3F510568F0B6C087
:101F800000C15F3FECF3983EDCF38695779567954B
:101F9000B795F7959F5FC9F7880F911D969587951F
:101FA00097F90895E1E0660F771F881FBB1F62173E
:101FB00073078407BA0720F0621B730B840BBA0BFC
:101FC000EE1F88F7E095089504D06894B111D9C048
:101FD0000895BCD088F09F5790F0B92F9927B7513A
:101FE000A0F0D1F0660F771F881F991F1AF0BA95DD
:101FF000C9F712C0B13081F0C3D0B1E00895C0C0BC
:10200000672F782F8827B85F39F0B93FCCF38695D2
:1020100077956795B395D9F73EF49095809570952F
:1020200061957F4F8F4F9F4F0895E89409C097FBAC
:102030003EF490958095709561957F4F8F4F9F4F9F
:102040009923A9F0F92F96E9BB279395F6958795E3
:1020500077956795B795F111F8CFFAF4BB0F11F4A6
:1020600060FF1BC06F5F7F4F8F4F9F4F16C088234D
:1020700011F096E911C0772321F09EE8872F762F83
:1020800005C0662371F096E8862F70E060E02AF0C4
:102090009A95660F771F881FDAF7880F96958795B0
:1020A00097F90895990F0008550FAA0BE0E8FEEF85
:1020B00016161706E807F907C0F012161306E4070C
:1020C000F50798F0621B730B840B950B39F40A2605
:1020D00061F0232B242B252B21F408950A2609F4E3
:1020E000A140A6958FEF811D811D089597F99F67E7
:1020F00080E870E060E008959FEF80EC0895002490
:102100000A941616170618060906089500240A945C
:1021100012161306140605060895092E0394000CE2
:1021200011F4882352F0BB0F40F4BF2B11F460FF71
:1021300004C06F5F7F4F8F4F9F4F089557FD90589A
:10214000440F551F59F05F3F71F04795880F97FB7B
:10215000991F61F09F3F79F0879508951216130635
:102160001406551FF2CF4695F1DF08C01616170664
:102170001806991FF1CF8695710561050894089599
:10218000E894BB2766277727CB0197F908950BD0F2
:10219000C4CFB5DF28F0BADF18F0952309F0A6CF39
:1021A000ABCF1124EECFCADFA0F3959FD1F3950FEB
:1021B00050E0551F629FF001729FBB27F00DB11DCB
:1021C000639FAA27F00DB11DAA1F649F6627B00D5B
:1021D000A11D661F829F2227B00DA11D621F739F44
:1021E000B00DA11D621F839FA00D611D221F749F52
:1021F0003327A00D611D231F849F600D211D822F99
:10220000762F6A2F11249F5750408AF0E1F08823DF
:102210004AF0EE0FFF1FBB1F661F771F881F9150EC
:102220005040A9F79E3F510570F060CFAACF5F3FA5
:10223000ECF3983EDCF3869577956795B795F7951F
:10224000E7959F5FC1F7FE2B880F911D96958795A7
:1022500097F90895DF93D92F8FD0E695D7952AED7A
:102260003FE049E45FE3B33A6207730784079507E9
:10227000D7952AF0A2EA49EC906819D04EDFECE23B
:10228000F1E068D0DD0F0BF09ED0DD0F0BF490581D
:10229000DF91089534DF30F039DF20F031F49F3FD3
:1022A00011F41EF429CF0EF4E095E7FB1FCFE92FC0
:1022B00045DF80F3BA17620773078407950718F0A4
:1022C00071F49EF55DCF0EF4E0950B2EBA2FA02D84
:1022D0000B01B90190010C01CA01A0011124FF27D3
:1022E000591B99F0593F50F4503E68F11A16F040CE
:1022F000A22F232F342F4427585FF3CF46953795CD
:102300002795A795F0405395C9F77EF41F16BA0B91
:10231000620B730B840BBAF09150A1F0FF0FBB1F3F
:10232000661F771F881FC2F70EC0BA0F621F731F88
:10233000841F48F4879577956795B795F7959E3FE5
:1023400008F0B3CF9395880F08F09927EE0F979573
:10235000879508959F938F937F936F93FF93EF9348
:102360009B01AC0114DFEF91FF9142D02F913F917F
:102370004F915F910CCFC0CEE9DEE8F3E894E0E046
:10238000BB279F57F0F02AED3FE049EC06C0EE0F67
:10239000BB0F661F771F881F28F0B23A62077307CA
:1023A000840728F0B25A620B730B840BE3959A955D
:1023B00072F7803830F49A95BB0F661F771F881F1D
:1023C000D2F7904809C09B01AC0160E070E080E862
:1023D0009FE392CD9F3F31F0915020F48795779500
:1023E0006795B795880F911D9695879597F90895EC
:1023F000DF93CF931F930F93FF92EF92DF927B01B6
:102400008C01689405C0DA2EEF01CDDEFE01E89460
:10241000A5912591359145915591AEF3EF0147DF97
:10242000FE019701A801DA9479F7DF90EF90FF9011
:102430000F911F91CF91DF910895A1E21A2EAA1B4F
:10244000BB1BFD010DC0AA1FBB1FEE1FFF1FA21764
:10245000B307E407F50720F0A21BB30BE40BF50B61
:10246000661F771F881F991F1A9469F760957095EA
:10247000809590959B01AC01BD01CF010895EE0FB1
:10248000FF1F881F8BBF0790F691E02D199481E004
:0A24900090E0F89400C0F894FFCF2C
:10249A000100000000DB0945097409210AA5098326
:1024AA000997090003070000000000000003030762
:1024BA00000000000000000D0A0073746F70210014
:1024CA00595F646563726561736520696E697469D1
:0824DA00616C697A6564210060
:00000001FF
