:1000000038C1000067C1000065C1000063C1000085
:1000100061C100005FC100005DC100005BC1000064
:1000200059C1000057C1000055C1000053C1000074
:1000300051C100004FC100004DC100000C94FB08ED
:1000400049C1000047C1000045C1000043C1000094
:1000500041C100003FC100003DC100000C94B10847
:1000600039C100008AC400005FC4000033C1000031
:1000700031C100002FC100002DC100002BC10000C4
:1000800029C1000027C1000025C1000023C10000D4
:1000900021C100001FC100001DC100001BC10000E4
:1000A00019C1000017C1000015C1000013C10000F4
:1000B00011C100000FC100000DC100000BC1000004
:1000C00009C1000007C1000005C1000003C1000014
:1000D00001C10000FFC00000FDC00000FBC0000027
:1000E000F9C0000090029302820286028C02CA02CA
:1000F00097029B02A102A502A902AF02B302B702B6
:10010000CA02BD02C102C50249054E0553055D057F
:100110006705E0057105790581058B0595059F0546
:10012000AE05B805E005C205CC05D6050664EC1B96
:100130003C04BC163E3BE5B93CC93C37C29E5A3D27
:10014000660498083EEA69AAAA3E000000803F00C3
:1001500000002100240027002A002D003000330079
:1001600001010000040107010A010000220025002E
:1001700028002B002E003100340002010000050190
:1001800008010B01000020002300260029002C009C
:100190002F003200000100000301060109010505DE
:1001A0000505070508080808020202020A0A0808ED
:1001B000040404040101010101010101030303031B
:1001C00003030303040707070C0C0C0C0C0C0C0CAA
:1001D0000202020206060606060606060B0B0B0BBB
:1001E0000B0B0B0B010210202008081020401020E0
:1001F00040800201020108040201010204081020EB
:1002000040808040201008040201800402018040E8
:100210002010080402010804020101020408102051
:100220004080010204081020408000000A0B0209EF
:100230000C0D0E0807030401000000000000000080
:1002400000000000000000000000000000000000AE
:10025000000000000000121110000000000000006B
:10026000000000000000000000000000000000008E
:100270003D0A11241FBECFEFD1E2DEBFCDBF00E0AB
:100280000CBF12E0A0E0B2E0E4ECFFE100E00BBF45
:1002900002C007900D92AA32B107D9F722E0AAE274
:1002A000B2E001C01D92AC3FB207E1F711E0C9E333
:1002B000D1E000E006C021970109802FFE010E94D5
:1002C000D40FC833D10780E00807A9F70E946A0A53
:1002D0000C94E00F95CE089580E090E00895FC0125
:1002E000538D448D252F30E0842F90E0821B930B9B
:1002F000541710F0CF96089501970895FC01918D41
:10030000828D981761F0828DDF01A80FB11D5D9677
:100310008C91928D9F5F9F73928F90E008958FEFE5
:100320009FEF0895FC01918D828D981731F0828D99
:10033000E80FF11D858D90E008958FEF9FEF0895F0
:10034000FC01918D228D892F90E0805C9F4F821B54
:1003500091098F73992708958FE592E0F1DF21E0ED
:10036000892B09F420E0822F0895FC01848DDF01A0
:10037000A80FB11DA35ABF4F2C91848D90E0019618
:100380008F739927848FA689B7892C93A089B18907
:100390008C9180648C93938D848D981306C0028811
:1003A000F389E02D80818F7D80830895EF92FF9205
:1003B0000F931F93CF93DF93EC0181E0888F9B8D88
:1003C0008C8D981305C0E889F989808185FD23C04B
:1003D000F62E0B8D10E00F5F1F4F0F731127E02ECD
:1003E0008C8DE8120BC00FB607FCFACFE889F989AB
:1003F000808185FFF5CFCE01B8DFF2CF8B8DFE0176
:10040000E80FF11DE35AFF4FF0820B8FEA89FB8959
:100410008081806207C0EE89FF896083E889F9895D
:1004200080818064808381E090E0DF91CF911F9193
:100430000F91FF90EF900895CF93DF93EC01888D9B
:100440008823C1F0EA89FB89808185FD05C0A889E0
:10045000B9898C9186FD0EC00FB607FCF5CF80815F
:1004600085FFF2CFA889B9898C9185FFEDCFCE01A8
:100470007CDFE8CFDF91CF91089580E090E0892B79
:1004800019F06ADF811125C080E090E0892B41F0EE
:1004900080E090E0892B21F00E94000081111CC0B7
:1004A00080E090E0892B41F080E090E0892B21F002
:1004B0000E940000811113C080E090E0892BA1F020
:1004C00080E090E0892B81F00E94000081110AC039
:1004D00008950E940000D8CF0E940000E1CF0E9442
:1004E0000000EACF0C940000089590E0FC013197E1
:1004F000E231F10508F04EC08827EE58FF4F8F4FCC
:100500000C94D40F809180008F7703C0809180007D
:100510008F7D80938000089580918000877FF9CF40
:1005200084B58F7702C084B58F7D84BD0895809196
:10053000B0008F7703C08091B0008F7D8093B000B2
:100540000895809190008F7707C0809190008F7DF3
:1005500003C080919000877F8093900008958091E0
:10056000A0008F7707C08091A0008F7D03C080918D
:10057000A000877F8093A0000895809120018F774D
:1005800007C0809120018F7D03C080912001877F6B
:10059000809320010895CF93DF93282F30E0F90155
:1005A000E65DFD4F8491F901EC51FE4FD491F901C4
:1005B000E256FE4FC491CC2389F0811196DFEC2FD7
:1005C000F0E0EE0FFF1FEC57FE4FA591B491EC91B8
:1005D000ED2381E090E021F480E002C080E090E033
:1005E000DF91CF910895CF93DF9390E0FC01EC5120
:1005F000FE4F2491FC01E256FE4F8491882361F165
:1006000090E0880F991FFC01E05BFE4FC591D491EB
:10061000FC01E659FE4FA591B491611109C09FB745
:10062000F8948881209582238883EC912E230BC037
:10063000623061F49FB7F8943881822F80958323CC
:100640008883EC912E2B2C939FBF06C08FB7F89414
:10065000E8812E2B28838FBFDF91CF9108953FB77C
:10066000F8948091380290913902A0913A02B091A9
:100670003B0226B5A89B05C02F3F19F00196A11D8E
:10068000B11D3FBFBA2FA92F982F8827820F911D28
:10069000A11DB11DBC01CD0142E0660F771F881F6F
:1006A000991F4A95D1F708958F929F92AF92BF926A
:1006B000CF92DF92EF92FF926B017C01D0DF4B0172
:1006C0005C01C114D104E104F104E9F0C8DFDC01EC
:1006D000CB0188199909AA09BB09883E9340A10555
:1006E000B10578F321E0C21AD108E108F10888EEDB
:1006F000880E83E0981EA11CB11CC114D104E10432
:10070000F10421F7DECFFF90EF90DF90CF90BF9004
:10071000AF909F908F9008959091580280915702CA
:100720009111C4C0882321F0833009F45CC0EDC06E
:1007300080915D02811104C090915C02992341F087
:1007400090913E02911116C090913D02911112C0FC
:1007500024EB30E0309354022093530240E050E009
:1007600064E573E440934F0250935002609351024A
:100770007093520290915B0220915E02911116C01B
:100780008823A1F02223A1F048EC50E050935402BA
:100790004093530240E050E06AE773E440934F0215
:1007A0005093500260935102709352022111BBC0CA
:1007B00020915C02222309F4B1C0992309F4B3C04B
:1007C00080EA90E0909354028093530280E090E09E
:1007D000AAE7B3E480934F0290935002A093510292
:1007E000B0935202089590915E0280915D02911142
:1007F0001CC081111AC020915C02211116C02091E9
:100800005B02211112C02AE530E03093540220939C
:10081000530240E050E064E573E440934F0250938C
:1008200050026093510270935202209141022223A0
:1008300021F020914002211112C02BE331E03093CE
:1008400054022093530240E050E06AE773E440937F
:100850004F025093500260935102709352029923B9
:1008600011F0811112C021EE30E030935402209338
:10087000530240E050E06AE773E440934F02509324
:100880005002609351027093520281114CC08091CA
:100890003E02811148C091E0909348028091550238
:1008A0008F5F80935502909358020895882319F022
:1008B0008330F9F02AC020915E0280915D02082EFB
:1008C000000C990B820F911D27FD9A9520915C02D7
:1008D000820F911D27FD9A9520915B02820F911D39
:1008E00027FD9A950297FCF0109258021092480248
:1008F000089580915D02811104C080913E02882399
:1009000021F0109258021092480210924F02109259
:10091000500210925102109252020895811103C0A8
:10092000992309F4B8CF08951F920F920FB60F9232
:1009300011240BB60F922F933F934F935F936F93B6
:100940007F938F939F93AF93BF93EF93FF938FE525
:1009500092E00BDDFF91EF91BF91AF919F918F914D
:100960007F916F915F914F913F912F910F900BBEAF
:100970000F900FBE0F901F9018951F920F920FB6F9
:100980000F9211240BB60F922F938F939F93EF9397
:10099000FF93E0916F02F09170028081E091750207
:1009A000F091760282FD12C09081809178028F5F73
:1009B0008F7320917902821751F0E0917802F0E074
:1009C000E15AFD4F958F8093780201C08081FF919D
:1009D000EF919F918F912F910F900BBE0F900FBEB3
:1009E0000F901F9018951F93CF93DF93282F30E01F
:1009F000F901E65DFD4F8491F901EC51FE4FD49170
:100A0000F901E256FE4FC491CC23C1F0162F81119B
:100A10006CDDEC2FF0E0EE0FFF1FE659FE4FA591C5
:100A2000B4918FB7F894111105C09C91ED2FE0950A
:100A3000E92302C0EC91ED2BEC938FBFDF91CF91B6
:100A40001F9108951F93CF93DF93182FEB0161E05F
:100A5000CADD209711F460E004C0CF3FD10531F426
:100A600061E0812FDF91CF911F91BDCFE12FF0E0A9
:100A7000E65DFD4FE4914E2F50E0FA013197E231EF
:100A8000F10508F09DC08827EC57FF4F8F4F0C945D
:100A9000D40F84B5806884BDC7BD97C084B580621B
:100AA00084BDC8BD92C08091800080688093800022
:100AB000D0938900C093880088C0809180008062B4
:100AC00080938000D0938B00C0938A007EC0809179
:100AD0008000886080938000D0938D00C0938C004C
:100AE00074C08091B00080688093B000C093B30060
:100AF0006CC08091B00080628093B000C093B4005D
:100B000064C080919000806880939000D093990099
:100B1000C09398005AC080919000806280939000AA
:100B2000D0939B00C0939A0050C080919000886041
:100B300080939000D0939D00C0939C0046C080910C
:100B4000A00080688093A0008091A0008F7B80939C
:100B5000A000D093A900C093A80037C08091A00046
:100B600080628093A000D093AB00C093AA002DC0F8
:100B70008091A00088608093A000D093AD00C093C6
:100B8000AC0023C080912001806880932001D09325
:100B90002901C093280119C08091200180628093AF
:100BA0002001D0932B01C0932A010FC08091200116
:100BB000886080932001D0932D01C0932C0105C043
:100BC000C038D1050CF04CCF46CFDF91CF911F91AB
:100BD00008958F929F92AF92BF92CF92DF92EF9241
:100BE000FF920F931F93CF93DF9300D01F92CDB747
:100BF000DEB74C0188E6881681E09806A8F088E602
:100C0000881681E0980654F088E6881A81E0980AF0
:100C100088E6881681E09806BCF706C088E9881A3D
:100C20008EEF980A97FCFACF77FD07C08B016B3FD8
:100C300071052CF00AEF10E002C008EC10E068012A
:100C4000012E000CEE08FF088DE2881691040CF4CA
:100C500009C154018DE2A81AB1088DE2A816B104A9
:100C600008F44BC1C4018A5591098D32910508F4ED
:100C70008BC1B401675871096D32710508F4CFC199
:100C80008A5591098D9708F411C2540181EEA81A72
:100C9000B1088DE2A816B10408F452C0C4018E5008
:100CA00091408D9708F094C06BE371E06819790961
:100CB000072E000C880B990B4FD720E030E044E35F
:100CC00053E4AFD62BED3FE049E450E4F5D70E9462
:100CD000BF0E9B01AC01C701B60129833A834B8348
:100CE0005C833AD729813A814B815C81E5D701D772
:100CF0006B017C0184E0A6DEB60186E0A3DEB801CC
:100D000085E0A0DEB80187E09DDE60E086E16BDE75
:100D100061E087E168DE61E08AE165DE60E08BE149
:100D200062DE61E088E15FDE60E089E15CDE60E078
:100D30008CE159DE61E08DE156DE87E090E000C293
:100D4000B80184E07FDEB80186E07CDEB501BB0C33
:100D5000880B990B01D720E030E044E353E461D6DF
:100D60002BED3FE049E450E4A7D70E94BF0E9B0162
:100D7000AC01C701B60129833A834B835C83ECD66F
:100D800029813A814B815C8197D7B3D66B017C0175
:100D900085E058DEB60187E055DE60E086E123DEBF
:100DA00061E087E120DE61E08AE11DDE60E08BE149
:100DB0001ADE61E088E117DE60E089E114DE60E0C0
:100DC0008CE111DE61E08DE10EDE86E090E0B8C1DD
:100DD000B4016B537140072E000C880B990BBCD6E5
:100DE00020E030E044E353E41CD62BED3FE049E43F
:100DF00050E462D7C4D79B01AC01C701B601298377
:100E00003A834B835C83A8D629813A814B815C81EC
:100E100053D76FD66B017C0184E014DEB60186E007
:100E200011DEB80185E00EDEB80187E00BDE61E07F
:100E300086E1D9DD60E087E1D6DD60E08AE1D3DDDF
:100E400061E08BE1D0DD61E088E1CDDD60E089E14A
:100E5000CADD60E08CE1C7DD61E08DE1C4DD88E0E2
:100E600090E06EC1B80184E0EDDDB80186E0EADD16
:100E70006DE270E068197909072E000C880B990B58
:100E80006BD620E030E044E353E4CBD52BED3FE0DC
:100E900049E450E411D773D79B01AC01C701B601F7
:100EA00029833A834B835C8357D629813A814B81CE
:100EB0005C8102D71ED66B017C0185E0C3DDB601E3
:100EC00087E0C0DD61E086E18EDD60E087E18BDDFB
:100ED00060E08AE188DD61E08BE185DD61E088E149
:100EE00082DD60E089E17FDD60E08CE17CDD61E056
:100EF0008DE179DD81E090E023C1B80184E0A2DDDD
:100F0000B80186E09FDDB501BB0C880B990B24D698
:100F100020E030E044E353E484D52BED3FE049E4A6
:100F200050E4CAD62CD79B01AC01C701B601298376
:100F30003A834B835C8310D629813A814B815C8153
:100F4000BBD6D7D56B017C0185E07CDDB60187E09F
:100F500079DD61E086E147DD60E087E144DD60E066
:100F60008AE141DD61E08BE13EDD60E088E13BDD6F
:100F700061E089E138DD61E08CE135DD60E08DE143
:100F800032DD82E090E0DCC067E870E06819790942
:100F9000072E000C880B990BDFD520E030E044E3EE
:100FA00053E43FD52BED3FE049E450E485D6E7D646
:100FB0009B01AC01C701B60129833A834B835C8353
:100FC000CBD529813A814B815C8176D692D56B0154
:100FD0007C0184E037DDB60186E034DDB80185E0D0
:100FE00031DDB80187E02EDD61E086E1FCDC60E008
:100FF00087E1F9DC60E08AE1F6DC61E08BE1F3DCBB
:1010000060E088E1F0DC61E089E1EDDC61E08CE149
:10101000EADC60E08DE1E7DC83E090E091C0072E40
:10102000000C880B990B98D520E030E044E353E4A2
:10103000F8D42BED3FE049E450E43ED6A0D69B0126
:10104000AC01C701B60129833A834B835C8384D505
:1010500029813A814B815C812FD64BD56B017C0174
:1010600084E0F0DCB60186E0EDDCB80185E0EADC86
:10107000B80187E0E7DC60E086E1B5DC61E087E1AC
:10108000B2DC61E08AE1AFDC60E08BE1ACDC60E027
:1010900088E1A9DC61E089E1A6DC61E08CE1A3DC08
:1010A00060E08DE1A0DC84E090E04AC0B80184E01B
:1010B000C9DCB80186E0C6DC61EE70E06819790928
:1010C000072E000C880B990B47D520E030E044E355
:1010D00053E4A7D42BED3FE049E450E4EDD54FD6DF
:1010E0009B01AC01C701B60129833A834B835C8322
:1010F00033D529813A814B815C81DED5FAD46B01ED
:101100007C0185E09FDCB60187E09CDC60E086E145
:101110006ADC61E087E167DC61E08AE164DC60E071
:101120008BE161DC60E088E15EDC61E089E15BDC51
:1011300061E08CE158DC60E08DE155DC85E090E019
:101140000F900F900F900F90DF91CF911F910F9103
:10115000FF90EF90DF90CF90BF90AF909F908F90D7
:1011600008951F920F920FB60F9211242F933F9361
:101170008F939F93AF93BF938091340290913502E8
:10118000A0913602B09137023091330223E0230F51
:101190002D3720F40196A11DB11D05C026E8230FAF
:1011A0000296A11DB11D20933302809334029093C7
:1011B0003502A0933602B0933702809138029091A5
:1011C0003902A0913A02B0913B020196A11DB11DD6
:1011D0008093380290933902A0933A02B0933B0275
:1011E000BF91AF919F918F913F912F910F900FBE23
:1011F0000F901F9018951F920F920FB60F92112407
:101200000BB60F922F933F934F935F936F937F9300
:101210008F939F93AF93BF93EF93FF93809131028E
:10122000909132028093B20080912D0290912E0213
:10123000A0912F02B09130020196A11DB11D8093A3
:101240002D0290932E02A0932F02B0933002809132
:101250002D0290912E02A0912F02B0913002809128
:101260002C0281111AC081E080932C0280912D0202
:1012700090912E02A0912F02B091300280932D0206
:1012800090932E02A0932F02B0933002E0912A0295
:10129000F0912B02199510922C02FF91EF91BF91C2
:1012A000AF919F918F917F916F915F914F913F91FE
:1012B0002F910F900BBE0F900FBE0F901F9018959F
:1012C000CF92DF92EF92FF920F931F93CF93DF9312
:1012D0006C017A018B01C0E0D0E0CE15DF0589F00A
:1012E000D8016D918D01D601ED91FC910190F081B5
:1012F000E02DC6011995892B11F47E0102C02196BB
:10130000ECCFC701DF91CF911F910F91FF90EF902C
:10131000DF90CF9008958F929F92AF92BF920F93DC
:101320001F93CF93DF93CDB7DEB7A1970FB6F89495
:10133000DEBF0FBECDBF19A2423008F44AE08E01D5
:101340000F5D1F4F842E912CA12CB12CA50194016F
:1013500009D6E62FB901CA0101501109EA3014F487
:10136000E05D01C0E95CD801EC93232B242B252BF5
:1013700069F70115110569F0F80101900020E9F7FE
:101380003197AF01401B510BB8018FE592E098DF18
:1013900002C080E090E0A1960FB6F894DEBF0FBEC9
:1013A000CDBFDF91CF911F910F91BF90AF909F90D4
:1013B0008F90089501D66AEF70E084E043DB6AEF16
:1013C00070E086E03FDB6AEF70E085E03BDB6AEFD0
:1013D00070E087E037DB6FEF86E105DB6EEF87E1DA
:1013E00002DB6EEF8AE1FFDA6FEF8BE1FCDA6EEF82
:1013F00088E1F9DA6FEF89E1F6DA6FEF8CE1F3DA81
:101400006EEF8DE1F0CACF92DF92EF92FF92CF9311
:10141000DF936C01990FEE08FF08F7FE19C0E09109
:101420005F02F09160020190F081E02D6DE28FE5A6
:1014300092E01995EC0166277727CB016C197D099D
:101440008E099F094AE067DF7C01EC0EFD1E05C096
:101450004AE0C701B6015FDF7C0142E050E067E28D
:1014600072E08FE592E02CDF8E0D9F1DDF91CF9112
:10147000FF90EF90DF90CF900895EFE5F2E01382B8
:10148000128288EE93E0A0E0B0E084839583A68387
:10149000B78385E092E09183808385EC90E0958727
:1014A000848784EC90E09787868780EC90E0918B2E
:1014B000808B81EC90E0938B828B82EC90E0958B1B
:1014C000848B86EC90E0978B868B118E128E138E18
:1014D000148E0895789484B5826084BD84B581604B
:1014E00084BD85B5826085BD85B5816085BD8091EF
:1014F0006E00816080936E00109281008091810067
:10150000826080938100809181008160809381005E
:10151000809180008160809380008091B100846020
:101520008093B1008091B00081608093B000809181
:1015300091008260809391008091910081608093FE
:101540009100809190008160809390008091A10033
:1015500082608093A1008091A10081608093A100AE
:101560008091A00081608093A00080912101826021
:1015700080932101809121018160809321018091DC
:10158000200181608093200180917A0084608093A3
:101590007A0080917A00826080937A0080917A004C
:1015A000816080937A0080917A00806880937A00CD
:1015B0001092C100E0916F02F091700282E080838E
:1015C000E0916B02F0916C021082E0916D02F0915B
:1015D0006E028FEC808310927702E0917302F0919B
:1015E000740286E08083E0917102F0917202808142
:1015F00080618083E0917102F09172028081886045
:101600008083E0917102F091720280818068808312
:10161000E0917102F091720280818F7D808360E0A1
:1016200082E20E94F30260E083E20E94F30260E043
:1016300084E20E94F30260E085E20E94F30260E02F
:1016400089E20E94F30260E088E20E94F30260E017
:1016500087E20E94F30260E086E20E94F30260E00B
:1016600081E20E94F30260E080E20E94F30260E007
:101670008FE10E94F30260E08EE10E94F30260E0DD
:101680008AE20E94F30260E08BE20E94F30260E0D3
:101690008CE20E94F30260E08DE20E94F30261E0BE
:1016A00086E10E94F30261E087E10E94F30261E0BB
:1016B0008BE10E94F30261E08BE10E94F30261E0A2
:1016C00088E10E94F30261E089E10E94F30261E097
:1016D0008CE10E94F30261E08DE10E94F30261E07F
:1016E00084E00E94F30261E086E00E94F30261E080
:1016F00085E00E94F30261E087E00E94F302E0913E
:1017000056020E2E000CFF0BED5EFD4F8081809384
:10171000570288EE482E83E0582E99249394C12CCA
:10172000D12C9AE7E92E93E4F92E2AE5622E712C4A
:101730000EE011E034EBA32EB12C82E20E94CB022A
:101740008093470283E20E94CB028093460284E2A8
:101750000E94CB028093450285E20E94CB028093D7
:10176000440282E20E94CB028093430288E20E94FC
:10177000CB028093420287E20E94CB028093410217
:1017800086E20E94CB028093400281E20E94CB025B
:10179000382E80935E0280E20E94CB02882E8093D6
:1017A0005D028FE10E94CB02D82F80935C028EE114
:1017B0000E94CB02C82F80935B028AE20E94CB0278
:1017C00080933F028BE20E94CB0280933E028CE228
:1017D0000E94CB0280933D028DE20E94CB02809357
:1017E0003C02632DA20164039001659F300D11241A
:1017F000882D94E68902200D311D11244AE0D4027F
:10180000200D311D1124C9018C0F911DC7FD9A9522
:1018100090935A0280935902F6DD80915802082E67
:10182000000C990BF0DD80915702082E000C990BEB
:10183000EADD80915602082E000C990BE4DD8091C0
:101840005502082E000C990BDEDD80915702813085
:1018500001F11CF4882339F0B7C0823079F183306C
:1018600009F441C0B1C080910002882309F452C03C
:10187000B0925402A0925302C0924F02D0925002F2
:10188000E0925102F09252026AEF70E084EB90E035
:101890003EC0809100028823E9F110925402109218
:1018A0005302C0924F02D0925002E0925102F09245
:1018B00052026AEF70E080E090E029C0809100025F
:1018C000882341F17092540260925302C0924F02F9
:1018D000D0925002E0925102F09252026AEF70E010
:1018E0008AE590E014C080910002882399F010935B
:1018F000540200935302C0924F02D0925002E092E1
:101900005102F09252026AEF70E08EE091E061D9EC
:10191000109200020E948C03C0915302D091540295
:1019200080914D0290914E02C817D90799F42091E9
:10193000490230914A0240914B0250914C02609111
:101940004F0270915002809151029091520265D0E5
:1019500081110BC060914F02709150028091510231
:1019600090915202C6D0CE0134D980905502C091D8
:101970005602EC2F0C2E000CFF0BED5EFD4FD285B6
:101980008D1207C018DD68EE73E080E090E00E94E1
:101990005403809158028823F9F0809148028823EB
:1019A000D9F08D16CCF0E1E0EC0FE09356020E2E4C
:1019B000000CFF0BED5EFD4F80818093570210926B
:1019C00055029092000208C010924F0210925002ED
:1019D000109251021092520280915302909154023F
:1019E00090934E0280934D0280914F02909150024D
:1019F000A0915102B09152028093490290934A0201
:101A0000A0934B02B0934C0262E370E080E090E060
:101A10000E9454030E943D0290CED9D008F481E088
:101A200008950CD00FC107D140F0FED030F021F462
:101A30005F3F19F0F0C0511139C1F3C014D198F3D0
:101A40009923C9F35523B1F3951B550BBB27AA273F
:101A500062177307840738F09F5F5F4F220F331FB1
:101A6000441FAA1FA9F333D00E2E3AF0E0E830D07D
:101A700091505040E695001CCAF729D0FE2F27D080
:101A8000660F771F881FBB1F261737074807AB074E
:101A9000B0E809F0BB0B802DBF01FF2793585F4FC3
:101AA0002AF09E3F510568F0B6C000C15F3FECF3DD
:101AB000983EDCF3869577956795B795F7959F5F88
:101AC000C9F7880F911D9695879597F90895E1E0DC
:101AD000660F771F881FBB1F621773078407BA073B
:101AE00020F0621B730B840BBA0BEE1F88F7E09596
:101AF000089504D06894B111D9C00895BCD088F07D
:101B00009F5790F0B92F9927B751A0F0D1F0660FE9
:101B1000771F881F991F1AF0BA95C9F712C0B13004
:101B200081F0C3D0B1E00895C0C0672F782F882717
:101B3000B85F39F0B93FCCF3869577956795B39543
:101B4000D9F73EF490958095709561957F4F8F4FB2
:101B50009F4F0895E89409C097FB3EF490958095B7
:101B6000709561957F4F8F4F9F4F9923A9F0F92F63
:101B700096E9BB279395F695879577956795B795E1
:101B8000F111F8CFFAF4BB0F11F460FF1BC06F5FC7
:101B90007F4F8F4F9F4F16C0882311F096E911C0D9
:101BA000772321F09EE8872F762F05C0662371F0FA
:101BB00096E8862F70E060E02AF09A95660F771F0E
:101BC000881FDAF7880F9695879597F90895990FEA
:101BD0000008550FAA0BE0E8FEEF16161706E807F7
:101BE000F907C0F012161306E407F50798F0621B18
:101BF000730B840B950B39F40A2661F0232B242BED
:101C0000252B21F408950A2609F4A140A6958FEF0B
:101C1000811D811D089597F99F6780E870E060E05D
:101C200008959FEF80EC089500240A941616170675
:101C300018060906089500240A94121613061406BD
:101C400005060895092E0394000C11F4882352F020
:101C5000BB0F40F4BF2B11F460FF04C06F5F7F4FD8
:101C60008F4F9F4F089557FD9058440F551F59F0BF
:101C70005F3F71F04795880F97FB991F61F09F3F79
:101C800079F087950895121613061406551FF2CFA2
:101C90004695F1DF08C0161617061806991FF1CFF2
:101CA00086957105610508940895E894BB27662719
:101CB0007727CB0197F908950BD0C4CFB5DF28F073
:101CC000BADF18F0952309F0A6CFABCF1124EECFE1
:101CD000CADFA0F3959FD1F3950F50E0551F629F87
:101CE000F001729FBB27F00DB11D639FAA27F00D75
:101CF000B11DAA1F649F6627B00DA11D661F829F9C
:101D00002227B00DA11D621F739FB00DA11D621F80
:101D1000839FA00D611D221F749F3327A00D611D9D
:101D2000231F849F600D211D822F762F6A2F11247F
:101D30009F5750408AF0E1F088234AF0EE0FFF1FD2
:101D4000BB1F661F771F881F91505040A9F79E3F09
:101D5000510570F060CFAACF5F3FECF3983EDCF303
:101D6000869577956795B795F795E7959F5FC1F746
:101D7000FE2B880F911D9695879597F90895DF930F
:101D8000D92F8FD0E695D7952AED3FE049E45FE360
:101D9000B33A6207730784079507D7952AF0A2EA3A
:101DA00049EC906819D04EDFECE2F1E068D0DD0F2D
:101DB0000BF09ED0DD0F0BF49058DF91089534DFC7
:101DC00030F039DF20F031F49F3F11F41EF429CFB9
:101DD0000EF4E095E7FB1FCFE92F45DF80F3BA173C
:101DE000620773078407950718F071F49EF55DCFBD
:101DF0000EF4E0950B2EBA2FA02D0B01B901900126
:101E00000C01CA01A0011124FF27591B99F0593F69
:101E100050F4503E68F11A16F040A22F232F342FB1
:101E20004427585FF3CF469537952795A795F040FF
:101E30005395C9F77EF41F16BA0B620B730B840B14
:101E4000BAF09150A1F0FF0FBB1F661F771F881FCC
:101E5000C2F70EC0BA0F621F731F841F48F4879524
:101E600077956795B795F7959E3F08F0B3CF939513
:101E7000880F08F09927EE0F9795879508959F93FF
:101E80008F937F936F93FF93EF939B01AC0114DFCC
:101E9000EF91FF9142D02F913F914F915F910CCFE5
:101EA000C0CEE9DEE8F3E894E0E0BB279F57F0F00E
:101EB0002AED3FE049EC06C0EE0FBB0F661F771F0F
:101EC000881F28F0B23A62077307840728F0B25AD5
:101ED000620B730B840BE3959A9572F7803830F49C
:101EE0009A95BB0F661F771F881FD2F7904809C0CD
:101EF0009B01AC0160E070E080E89FE392CD9F3FE2
:101F000031F0915020F4879577956795B795880FB4
:101F1000911D9695879597F90895DF93CF931F9319
:101F20000F93FF92EF92DF927B018C01689405C0C2
:101F3000DA2EEF01CDDEFE01E894A59125913591D1
:101F400045915591AEF3EF0147DFFE019701A801DE
:101F5000DA9479F7DF90EF90FF900F911F91CF9176
:101F6000DF910895A1E21A2EAA1BBB1BFD010DC033
:101F7000AA1FBB1FEE1FFF1FA217B307E407F50739
:101F800020F0A21BB30BE40BF50B661F771F881F15
:101F9000991F1A9469F760957095809590959B01AB
:101FA000AC01BD01CF010895EE0FFF1F881F8BBF4D
:101FB0000790F691E02D199481E090E0F89400C02C
:041FC000F894FFCFC3
:101FC4000100000000D60160096F011C02A0017E1F
:101FD4000192010003070000000000000003030752
:0A1FE400000000000000000D0A00DC
:00000001FF
