:1000000038C1000067C1000065C1000063C1000085
:1000100061C100005FC100005DC100005BC1000064
:1000200059C1000057C1000055C1000053C1000074
:1000300051C100004FC100004DC10000FDC50000CE
:1000400049C1000047C1000045C1000043C1000094
:1000500041C100003FC100003DC10000A3C5000038
:1000600039C1000084C3000059C3000033C100003F
:1000700031C100002FC100002DC100002BC10000C4
:1000800029C1000027C1000025C1000023C10000D4
:1000900021C100001FC100001DC100001BC10000E4
:1000A00019C1000017C1000015C1000013C10000F4
:1000B00011C100000FC100000DC100000BC1000004
:1000C00009C1000007C1000005C1000003C1000014
:1000D00001C10000FFC00000FDC00000FBC0000027
:1000E000F9C000002D0430041F0423042904670410
:1000F000340438043E04420446044C0450045404BE
:1001000067045A045E046204FA04FF0404050E0541
:100110001805910522052A0532053C0546055005BE
:100120005F056905910573057D0587050664EC1B70
:100130003C04BC163E3BE5B93CC93C37C29E5A3D27
:10014000660498083EEA69AAAA3E000000803F00C3
:10015000000020002300260029002C002F00320080
:100160000001000003010601090105050505070559
:1001700008080808020202020A0A08080404040423
:10018000010101010101010103030303030303034F
:10019000040707070C0C0C0C0C0C0C0C02020202DE
:1001A00006060606060606060B0B0B0B0B0B0B0BC7
:1001B0000102102020080810204010204080020179
:1001C000020108040201010204081020408080405E
:1001D000201008040201800402018040201008045D
:1001E00002010804020101020408102040800102FB
:1001F00004081020408000000A0B02090C0D0E08B4
:1002000007030401000000000000000000000000DF
:1002100000000000000000000000000000000000DE
:10022000000012111000000000000000000000009B
:10023000000000000000000000000000000021009D
:10024000240027002A002D003000330001010000A7
:10025000040107010A0100002200250028002B00EC
:100260002E003100340002010000050108010B01DD
:100270003B0D11241FBECFEFD1E2DEBFCDBF00E0AA
:100280000CBF12E0A0E0B2E0EAE7F0E200E00BBF52
:1002900002C007900D92A834B107D9F723E0A8E473
:1002A000B2E001C01D92AA31B207E1F711E0C9E343
:1002B000D1E000E006C021970109802FFE010E94D5
:1002C0002F10C833D10780E00807A9F70E941B0A46
:1002D0000C943B1095CECF92DF92EF92FF920F934A
:1002E0001F93CF93DF936C017A018B01C0E0D0E0C4
:1002F000CE15DF0589F0D8016D918D01D601ED9104
:10030000FC910190F081E02DC6011995892B11F423
:100310007E0102C02196ECCFC701DF91CF911F91E2
:100320000F91FF90EF90DF90CF900895089580E0B7
:1003300090E00895FC01538D448D252F30E0842FEB
:1003400090E0821B930B541710F0CF9608950197FD
:100350000895FC01918D828D981761F0828DDF01E7
:10036000A80FB11D5D968C91928D9F5F9F73928FA8
:1003700090E008958FEF9FEF0895FC01918D828D9D
:10038000981731F0828DE80FF11D858D90E008956A
:100390008FEF9FEF0895FC01918D228D892F90E0C2
:1003A000805C9F4F821B91098F73992708958BE67C
:1003B00092E0F1DF21E0892B09F420E0822F0895FB
:1003C000FC01848DDF01A80FB11DA35ABF4F2C91F2
:1003D000848D90E001968F739927848FA689B789C1
:1003E0002C93A089B1898C9180648C93938D848D9A
:1003F000981306C00288F389E02D80818F7D808369
:100400000895EF92FF920F931F93CF93DF93EC0128
:1004100081E0888F9B8D8C8D981305C0E889F989C0
:10042000808185FD23C0F62E0B8D10E00F5F1F4FDE
:100430000F731127E02E8C8DE8120BC00FB607FC4E
:10044000FACFE889F989808185FFF5CFCE01B8DF41
:10045000F2CF8B8DFE01E80FF11DE35AFF4FF082C2
:100460000B8FEA89FB898081806207C0EE89FF8952
:100470006083E889F98980818064808381E090E0ED
:10048000DF91CF911F910F91FF90EF900895CF933F
:10049000DF93EC01888D8823C1F0EA89FB89808194
:1004A00085FD05C0A889B9898C9186FD0EC00FB65F
:1004B00007FCF5CF808185FFF2CFA889B9898C919F
:1004C00085FFEDCFCE017CDFE8CFDF91CF9108959E
:1004D00080E090E0892B19F06ADF811125C080E06F
:1004E00090E0892B41F080E090E0892B21F00E9480
:1004F000000081111CC080E090E0892B41F080E079
:1005000090E0892B21F00E940000811113C080E04F
:1005100090E0892BA1F080E090E0892B81F00E948F
:10052000000081110AC008950E940000D8CF0E94E7
:100530000000E1CF0E940000EACF0C940000089573
:100540006AEF70E084E02FD26AEF70E086E02BD291
:100550006AEF70E085E027D26AEF70E087E023D28F
:100560006FEF86E1B5D16EEF87E1B2D16EEF8AE130
:10057000AFD16FEF8BE1ACD16EEF88E1A9D16FEF16
:1005800089E1A6D16FEF8CE1A3D16EEF8DE1A0C11F
:10059000009761F0FC0101900020E9F73197AF016D
:1005A000481B590BBC018BE692E095CE80E090E0B1
:1005B0000895CF93DF93ECDFEC0187E292E0E8DF70
:1005C0008C0F9D1FDF91CF9108958F929F92AF92D4
:1005D000BF92CF92DF92EF92FF920F931F93CF9330
:1005E000DF93CDB7DEB7A1970FB6F894DEBF0FBE8D
:1005F000CDBF6C01990FEE08FF08F7FE30C0E09107
:100600006B02F0916C020190F081E02D6DE28BE6BF
:1006100092E019958C0122273327A9012C193D0955
:100620004E095F0919A2CE0181967C019AE0892EBC
:10063000912CA12CB12CCA01B901A50194010E94F1
:100640000D10605DF70162937F01211531054105B1
:10065000510589F7CF019CDF080F191F1DC0A701A5
:10066000960119A28E010F5D1F4F8AE0C82ED12C72
:10067000E12CF12CCA01B901A70196010E940D10CD
:10068000605DF80162938F01211531054105510527
:1006900089F7CF017DDF8C0187E292E079DF800F5F
:1006A000911FA1960FB6F894DEBF0FBECDBFDF91AC
:1006B000CF911F910F91FF90EF90DF90CF90BF905F
:1006C000AF909F908F9008950E943710CF93DF9343
:1006D000282F30E0F901EA50FE4F8491F901E055EE
:1006E000FE4FD491F901E659FE4FC491CC2389F015
:1006F000811198D0EC2FF0E0EE0FFF1FE05BFE4F72
:10070000A591B491EC91ED2381E090E021F480E09B
:1007100002C080E090E0DF91CF9108951F920F9288
:100720000FB60F9211240BB60F922F933F934F9356
:100730005F936F937F938F939F93AF93BF93EF9349
:10074000FF938BE692E03CDEFF91EF91BF91AF917A
:100750009F918F917F916F915F914F913F912F91D9
:100760000F900BBE0F900FBE0F901F9018951F9209
:100770000F920FB60F9211240BB60F922F938F93F7
:100780009F93EF93FF93E0917B02F0917C02808135
:10079000E0918102F091820282FD12C090818091ED
:1007A00084028F5F8F7320918502821751F0E09150
:1007B0008402F0E0E559FD4F958F8093840201C0DB
:1007C0008081FF91EF919F918F912F910F900BBEA0
:1007D0000F900FBE0F901F9018953FB7F89480911F
:1007E000160390911703A0911803B091190326B531
:1007F000A89B05C02F3F19F00196A11DB11D3FBF59
:10080000BA2FA92F982F8827820F911DA11DB11DE6
:10081000BC01CD0142E0660F771F881F991F4A95E2
:10082000D1F7089590E0FC013197E231F10508F02D
:100830004EC08827EE58FF4F8F4F0C942F10809199
:1008400080008F7703C0809180008F7D809380002F
:10085000089580918000877FF9CF84B58F7702C09B
:1008600084B58F7D84BD08958091B0008F7703C0DB
:100870008091B0008F7D8093B000089580919000AA
:100880008F7707C0809190008F7D03C0809190008A
:10089000877F8093900008958091A0008F7707C094
:1008A0008091A0008F7D03C08091A000877F8093FE
:1008B000A0000895809120018F7707C080912001CA
:1008C0008F7D03C080912001877F80932001089550
:1008D0001F93CF93DF93282F30E0F901EA50FE4FAA
:1008E0008491F901E055FE4FD491F901E659FE4F8C
:1008F000C491CC23C1F0162F811194DFEC2FF0E0CE
:10090000EE0FFF1FEA5AFD4FA591B4918FB7F894EF
:10091000111105C09C91ED2FE095E92302C0EC91E7
:10092000ED2BEC938FBFDF91CF911F910895CF9363
:10093000DF9390E0FC01E055FE4F2491FC01E65965
:10094000FE4F8491882361F190E0880F991FFC018C
:10095000E45CFD4FC591D491FC01EA5AFD4FA5918D
:10096000B491611109C09FB7F894888120958223C2
:100970008883EC912E230BC0623061F49FB7F8940A
:100980003881822F809583238883EC912E2B2C93A2
:100990009FBF06C08FB7F894E8812E2B28838FBFA6
:1009A000DF91CF9108951F93CF93DF93182FEB0121
:1009B00061E0BDDF209711F460E004C0CF3FD105B6
:1009C00031F461E0812FDF91CF911F9181CFE12F31
:1009D000F0E0EA50FE4FE4914E2F50E0FA013197DB
:1009E000E231F10508F09DC08827EC57FF4F8F4F8B
:1009F0000C942F1084B5806884BDC7BD97C084B5A2
:100A0000806284BDC8BD92C0809180008068809360
:100A10008000D0938900C093880088C080918000B6
:100A2000806280938000D0938B00C0938A007EC048
:100A300080918000886080938000D0938D00C09367
:100A40008C0074C08091B00080688093B000C09327
:100A5000B3006CC08091B00080628093B000C093FE
:100A6000B40064C080919000806880939000D0931F
:100A70009900C09398005AC0809190008062809342
:100A80009000D0939B00C0939A0050C0809190003A
:100A9000886080939000D0939D00C0939C0046C0D6
:100AA0008091A00080688093A0008091A0008F7B3F
:100AB0008093A000D093A900C093A80037C0809174
:100AC000A00080628093A000D093AB00C093AA00E6
:100AD0002DC08091A00088608093A000D093AD00CD
:100AE000C093AC0023C080912001806880932001D6
:100AF000D0932901C093280119C080912001806200
:100B000080932001D0932B01C0932A010FC08091C4
:100B10002001886080932001D0932D01C0932C0187
:100B200005C0C038D1050CF04CCF46CFDF91CF9136
:100B30001F9108958F929F92AF92BF92CF92DF92B2
:100B4000EF92FF926B017C0148DE4B015C01C11406
:100B5000D104E104F104E9F040DEDC01CB018819A5
:100B60009909AA09BB09883E9340A105B10578F30C
:100B700021E0C21AD108E108F10888EE880E83E06E
:100B8000981EA11CB11CC114D104E104F10421F789
:100B9000DECFFF90EF90DF90CF90BF90AF909F900F
:100BA0008F9008951F920F920FB60F9211242F93DA
:100BB0003F938F939F93AF93BF9380911203909134
:100BC0001303A0911403B09115033091110323E096
:100BD000230F2D3720F40196A11DB11D05C026E875
:100BE000230F0296A11DB11D2093110380931203C0
:100BF00090931303A0931403B093150380911603ED
:100C000090911703A0911803B09119030196A11DAB
:100C1000B11D8093160390931703A0931803B0930C
:100C20001903BF91AF919F918F913F912F910F9099
:100C30000FBE0F901F9018951F920F920FB60F9234
:100C400011240BB60F922F933F934F935F936F93A3
:100C50007F938F939F93AF93BF93EF93FF93809175
:100C60000F03909110038093B20080910B03909139
:100C70000C03A0910D03B0910E030196A11DB11DAF
:100C800080930B0390930C03A0930D03B0930E037A
:100C900080910B0390910C03A0910D03B0910E0372
:100CA00080910A0381111AC081E080930A03809128
:100CB0000B0390910C03A0910D03B0910E03809350
:100CC0000B0390930C03A0930D03B0930E03E091DC
:100CD0000803F0910903199510920A03FF91EF910F
:100CE000BF91AF919F918F917F916F915F914F9144
:100CF0003F912F910F900BBE0F900FBE0F901F9042
:100D000018959091550280915402911193C08823B7
:100D100019F08330C1F1BAC080915802811104C02A
:100D200090915702992341F090914A0291110AC083
:100D300090914902911106C024EB30E030935202A9
:100D400020935102909156022091590291110AC0AC
:100D5000882341F0222341F048EC50E050935202A6
:100D6000409351022111A0C020915702222309F47F
:100D700096C0992309F498C080EA90E090935202BB
:100D80008093510208955091580280915902252F65
:100D9000052E000C330B280F311D87FD3A958091ED
:100DA0005702280F311D87FD3A9580915602280F72
:100DB000311D87FD3A9540914A0260914B02842F84
:100DC000042E000C990B860F911D67FD9A9560917A
:100DD0004902860F911D67FD9A9560914802860F22
:100DE000911D67FD9A952817390719F48EE091E057
:100DF0000EC02817390734F462E271E07093520292
:100E0000609351028217930734F48AEF90E0909335
:100E1000520280935102511147C0411145C091E0E7
:100E200090934C02809153028F5F80935302909372
:100E300055020895882319F08330F9F027C02091D6
:100E4000590280915802082E000C990B820F911DB7
:100E500027FD9A9520915702820F911D27FD9A95A3
:100E600020915602820F911D27FD9A950297E4F07A
:100E70001092550210924C020895809158028111EF
:100E8000F7CF80914A028111F3CF089510924D025D
:100E900010924E0210924F0210925002089581114A
:100EA00003C0992309F4BBCF08958F929F92AF920C
:100EB000BF92CF92DF92EF92FF920F931F93CF9347
:100EC000DF9300D01F92CDB7DEB74C0188E68816BD
:100ED00081E09806A8F088E6881681E0980654F02C
:100EE00088E6881A81E0980A88E6881681E09806E4
:100EF000BCF706C088E9881A8EEF980A97FCFACFEB
:100F000077FD07C08B016B3F71052CF00AEF10E0F5
:100F100002C008EC10E06801012E000CEE08FF088A
:100F20008DE2881691040CF407C154018DE2A81AD1
:100F3000B1088DE2A816B10408F449C1C4018A556C
:100F400091098D32910508F489C1B401675871097E
:100F50006D32710508F4CDC18A5591098D9708F459
:100F60000FC2540181EEA81AB1088DE2A816B1048F
:100F700008F451C0C4018E5091408D9708F092C082
:100F80006BE371E068197909072E000C880B990B47
:100F90003ED620E030E044E353E49ED52BED3FE025
:100FA00049E450E4E4D646D79B01AC01C701B60141
:100FB00029833A834B835C832AD629813A814B81EA
:100FC0005C81D5D6F1D56B017C0184E0ECDCB60107
:100FD00086E0E9DCB80185E0E6DCB80187E0E3DC27
:100FE00060E086E175DC61E087E172DC61E08AE166
:100FF0006FDC60E08BE16CDC61E088E169DC60E083
:1010000089E166DC60E08CE163DC61E08DE160DC5D
:1010100087E090E0FFC1B80184E0C5DCB80186E05C
:10102000C2DCB501BB0C880B990BF1D520E030E098
:1010300044E353E451D52BED3FE049E450E497D627
:10104000F9D69B01AC01C701B60129833A834B83D2
:101050005C83DDD529813A814B815C8188D6A4D51A
:101060006B017C0185E09FDCB60187E09CDC60E0E1
:1010700086E12EDC61E087E12BDC61E08AE128DC9F
:1010800060E08BE125DC61E088E122DC60E089E161
:101090001FDC60E08CE11CDC61E08DE119DC86E0A6
:1010A00090E0B8C1B4016B537140072E000C880B5F
:1010B000990BADD520E030E044E353E40DD52BEDA2
:1010C0003FE049E450E453D6B5D69B01AC01C701DB
:1010D000B60129833A834B835C8399D529813A8170
:1010E0004B815C8144D660D56B017C0184E05BDC84
:1010F000B60186E058DCB80185E055DCB80187E030
:1011000052DC61E086E1E4DB60E087E1E1DB60E0A6
:101110008AE1DEDB61E08BE1DBDB61E088E1D8DBEB
:1011200060E089E1D5DB60E08CE1D2DB61E08DE15C
:10113000CFDB88E090E06EC1B80184E034DCB80118
:1011400086E031DC6DE270E068197909072E000C49
:10115000880B990B5CD520E030E044E353E4BCD429
:101160002BED3FE049E450E402D664D69B01AC018C
:10117000C701B60129833A834B835C8348D5298113
:101180003A814B815C81F3D50FD56B017C0185E001
:101190000ADCB60187E007DC61E086E199DB60E00C
:1011A00087E196DB60E08AE193DB61E08BE190DB35
:1011B00061E088E18DDB60E089E18ADB60E08CE161
:1011C00087DB61E08DE184DB81E090E023C1B80141
:1011D00084E0E9DBB80186E0E6DBB501BB0C880BF7
:1011E000990B15D520E030E044E353E475D42BEDA2
:1011F0003FE049E450E4BBD51DD69B01AC01C701DB
:10120000B60129833A834B835C8301D529813A81D6
:101210004B815C81ACD5C8D46B017C0185E0C3DB1C
:10122000B60187E0C0DB61E086E152DB60E087E188
:101230004FDB60E08AE14CDB61E08BE149DB60E0A1
:1012400088E146DB61E089E143DB61E08CE140DB82
:1012500060E08DE13DDB82E090E0DCC067E870E0BB
:1012600068197909072E000C880B990BD0D420E05F
:1012700030E044E353E430D42BED3FE049E450E464
:1012800076D5D8D59B01AC01C701B60129833A8335
:101290004B835C83BCD429813A814B815C8167D5C7
:1012A00083D46B017C0184E07EDBB60186E07BDBCE
:1012B000B80185E078DBB80187E075DB61E086E1A5
:1012C00007DB60E087E104DB60E08AE101DB61E0ED
:1012D0008BE1FEDA60E088E1FBDA61E089E1F8DACF
:1012E00061E08CE1F5DA60E08DE1F2DA83E090E034
:1012F00091C0072E000C880B990B89D420E030E0B8
:1013000044E353E4E9D32BED3FE049E450E42FD527
:1013100091D59B01AC01C701B60129833A834B8368
:101320005C8375D429813A814B815C8120D53CD482
:101330006B017C0184E037DBB60186E034DBB80169
:1013400085E031DBB80187E02EDB60E086E1C0DAC2
:1013500061E087E1BDDA61E08AE1BADA60E08BE161
:10136000B7DA60E088E1B4DA61E089E1B1DA61E03E
:101370008CE1AEDA60E08DE1ABDA84E090E04AC067
:10138000B80184E010DBB80186E00DDB61EE70E0AF
:1013900068197909072E000C880B990B38D420E0C6
:1013A00030E044E353E498D32BED3FE049E450E4CC
:1013B000DED440D59B01AC01C701B60129833A8335
:1013C0004B835C8324D429813A814B815C81CFD4C7
:1013D000EBD36B017C0185E0E6DAB60187E0E3DA66
:1013E00060E086E175DA61E087E172DA61E08AE166
:1013F0006FDA60E08BE16CDA60E088E169DA61E085
:1014000089E166DA61E08CE163DA60E08DE160DA5F
:1014100085E090E00F900F900F900F90DF91CF91AB
:101420001F910F91FF90EF90DF90CF90BF90AF9002
:101430009F908F900895CF93DF9300D01F92CDB7E8
:10144000DEB7789484B5826084BD84B5816084BD44
:1014500085B5826085BD85B5816085BD80916E0052
:10146000816080936E001092810080918100826083
:1014700080938100809181008160809381008091C0
:1014800080008160809380008091B10084608093AF
:10149000B1008091B00081608093B0008091910094
:1014A000826080939100809191008160809391008F
:1014B000809190008160809390008091A100826073
:1014C0008093A1008091A10081608093A100809110
:1014D000A00081608093A0008091210182608093B0
:1014E000210180912101816080932101809120015F
:1014F00081608093200180917A00846080937A00DB
:1015000080917A00826080937A0080917A00816075
:1015100080937A0080917A00806880937A0010929C
:10152000C100E0917B02F0917C0282E08083E09137
:101530007702F09178021082E0917902F0917A02BC
:101540008FEC808310928302E0917F02F091800201
:1015500086E08083E0917D02F0917E02808180614F
:101560008083E0917D02F0917E028081886080839B
:10157000E0917D02F0917E02808180688083E0911D
:101580007D02F0917E0280818F7D808360E082E227
:10159000CED960E083E2CBD960E084E2C8D960E0D4
:1015A00085E2C5D960E089E2C2D960E088E2BFD9AE
:1015B00060E087E2BCD960E086E2B9D960E081E210
:1015C000B6D960E080E2B3D960E08FE1B0D960E0E5
:1015D0008EE1ADD960E08AE2AAD960E08BE2A7D9BA
:1015E00060E08CE2A4D960E08DE2A1D961E086E1FF
:1015F0009ED961E087E19BD961E08BE198D961E0F8
:101600008BE195D961E088E192D961E089E18FD9D8
:1016100061E08CE18CD961E08DE189D961E084E001
:1016200086D961E086E083D961E085E080D961E018
:1016300087E07DD9E09168020E2E000CFF0BED5E75
:10164000FD4F80818093540211E0C12CD12C8AE798
:10165000E82E83E4F82E412C512C90E2692E93E47D
:10166000792E812C912C28E4A22E23E4B22E34EB87
:10167000232E312C82E22AD88093610283E226D87D
:101680008093600284E222D880935F0285E21ED8B4
:1016900080935E0282E21AD880935D0288E216D8B7
:1016A00080935C0287E212D880935B0286E20ED8B8
:1016B00080935A0281E20AD8482F8093590280E22F
:1016C0004C8304D8082F809358028FE10E94660350
:1016D000582F809357028EE159830E9466038A83B4
:1016E000809356028AE20E94660380934B028BE24B
:1016F0000E94660380934A028CE20E9466038093F4
:1017000049028DE20E946603809348024C8168EE94
:1017100073E046039001479F300D112474E60702E1
:10172000200D311D11245981C901EAE05E02800DAE
:10173000911D11242A81820F911D27FD9A95909366
:101740006A02809369020E94E50280915502082E88
:10175000000C990B0E94E50280915402082E000CA7
:10176000990B0E94E50280916802082E000C990BEB
:101770000E94E50280915302082E000C990B0E94F2
:10178000E50280915402813021F11CF4882341F05C
:101790004AC1823009F445C0833009F4BEC043C158
:1017A00080910002882309F4D5C030925202209221
:1017B0005102C0924D02D0924E02E0924F02F0923E
:1017C00050026AEF70E084EB90E06FDB1092000251
:1017D000C1C080910002882399F0109252021092A9
:1017E0005102C0924D02D0924E02E0924F02F0920E
:1017F00050026AEF70E080E090E057DB1092000248
:1018000080DA80915102909152029B838A83809169
:10181000660290916702EA81FB81E817F907D9F522
:1018200027C0809100028823A9F02AE530E0309398
:10183000520220935102C0924D02D0924E02E09289
:101840004F02F09250026AEF70E08AE590E02DDBE3
:101850001092000256DA60915102709152027B831D
:101860006A8380916602909167026817790799F4FC
:1018700020916202309163024091640250916502AE
:1018800060914D0270914E0280914F0290915002F2
:101890001FD181110CC060914D0270914E02809158
:1018A0004F029091500280D18A819B81FEDA209173
:1018B000530230916802E32F032E000CFF0BED5E04
:1018C000FD4F028520130BC029833C830E94A00298
:1018D00068EE73E080E090E02DD93C812981809111
:1018E0005502882309F4A7C080914C02882309F48B
:1018F000A2C020170CF49FC03F5F30936802832F73
:10190000330F990B8D5E9D4FFC01808180935402B3
:1019100010925302109300028EC08091000288231F
:10192000C9F02EE031E030935202209351028092B0
:101930004D0290924E02A0924F02B092500268EC7B
:1019400070E08EE091E0B1DA1092000280E392E064
:101950000E94D902D6D960915102709152027B83C4
:101960006A8380916602909167026817790799F4FB
:1019700020916202309163024091640250916502AD
:1019800060914D0270914E0280914F0290915002F1
:101990009FD081110CC060914D0270914E028091D8
:1019A0004F029091500200D18A819B817EDA209172
:1019B0005302E09168020E2E000CFF0BED5EFD4F0E
:1019C0008285281799F0022E000C330B082E000C8C
:1019D000990B01972817390771F540924D025092E3
:1019E0004E0260924F027092500225C00E94A002E7
:1019F0008AE292E00E94D902E0916802EF5FE093F0
:101A000068020E2E000CFF0BED5EFD4F808180936F
:101A10005402109253021093000268EE73E080E0CB
:101A200090E088D808C010924D0210924E02109299
:101A30004F02109250028091510290915202909365
:101A400067028093660280914D0290914E02A091B0
:101A50004F02B09150028093620290936302A09370
:101A60006402B093650262E370E080E090E062D8C7
:101A70000E946802FFCDEBE6F2E01382128288EE4C
:101A800093E0A0E0B0E084839583A683B78385E0EC
:101A900092E09183808385EC90E09587848784EC45
:101AA00090E09787868780EC90E0918B808B81EC2B
:101AB00090E0938B828B82EC90E0958B848B86EC0C
:101AC00090E0978B868B118E128E138E148E089554
:101AD000D9D008F481E008950CD00FC107D140F0AF
:101AE000FED030F021F45F3F19F0F0C0511139C140
:101AF000F3C014D198F39923C9F35523B1F3951B7F
:101B0000550BBB27AA2762177307840738F09F5F1E
:101B10005F4F220F331F441FAA1FA9F333D00E2E8D
:101B20003AF0E0E830D091505040E695001CCAF7FA
:101B300029D0FE2F27D0660F771F881FBB1F2617BF
:101B400037074807AB07B0E809F0BB0B802DBF0192
:101B5000FF2793585F4F2AF09E3F510568F0B6C0AB
:101B600000C15F3FECF3983EDCF38695779567956F
:101B7000B795F7959F5FC9F7880F911D9695879543
:101B800097F90895E1E0660F771F881FBB1F621762
:101B900073078407BA0720F0621B730B840BBA0B20
:101BA000EE1F88F7E095089504D06894B111D9C06C
:101BB0000895BCD088F09F5790F0B92F9927B7515E
:101BC000A0F0D1F0660F771F881F991F1AF0BA9501
:101BD000C9F712C0B13081F0C3D0B1E00895C0C0E0
:101BE000672F782F8827B85F39F0B93FCCF38695F7
:101BF00077956795B395D9F73EF490958095709554
:101C000061957F4F8F4F9F4F0895E89409C097FBD0
:101C10003EF490958095709561957F4F8F4F9F4FC3
:101C20009923A9F0F92F96E9BB279395F695879507
:101C300077956795B795F111F8CFFAF4BB0F11F4CA
:101C400060FF1BC06F5F7F4F8F4F9F4F16C0882371
:101C500011F096E911C0772321F09EE8872F762FA7
:101C600005C0662371F096E8862F70E060E02AF0E8
:101C70009A95660F771F881FDAF7880F96958795D4
:101C800097F90895990F0008550FAA0BE0E8FEEFA9
:101C900016161706E807F907C0F012161306E40730
:101CA000F50798F0621B730B840B950B39F40A2629
:101CB00061F0232B242B252B21F408950A2609F407
:101CC000A140A6958FEF811D811D089597F99F670B
:101CD00080E870E060E008959FEF80EC08950024B4
:101CE0000A941616170618060906089500240A9481
:101CF00012161306140605060895092E0394000C07
:101D000011F4882352F0BB0F40F4BF2B11F460FF95
:101D100004C06F5F7F4F8F4F9F4F089557FD9058BE
:101D2000440F551F59F05F3F71F04795880F97FB9F
:101D3000991F61F09F3F79F0879508951216130659
:101D40001406551FF2CF4695F1DF08C01616170688
:101D50001806991FF1CF86957105610508940895BD
:101D6000E894BB2766277727CB0197F908950BD016
:101D7000C4CFB5DF28F0BADF18F0952309F0A6CF5D
:101D8000ABCF1124EECFCADFA0F3959FD1F3950F0F
:101D900050E0551F629FF001729FBB27F00DB11DEF
:101DA000639FAA27F00DB11DAA1F649F6627B00D7F
:101DB000A11D661F829F2227B00DA11D621F739F68
:101DC000B00DA11D621F839FA00D611D221F749F76
:101DD0003327A00D611D231F849F600D211D822FBD
:101DE000762F6A2F11249F5750408AF0E1F0882304
:101DF0004AF0EE0FFF1FBB1F661F771F881F915011
:101E00005040A9F79E3F510570F060CFAACF5F3FC9
:101E1000ECF3983EDCF3869577956795B795F79543
:101E2000E7959F5FC1F7FE2B880F911D96958795CB
:101E300097F90895DF93D92F8FD0E695D7952AED9E
:101E40003FE049E45FE3B33A62077307840795070D
:101E5000D7952AF0A2EA49EC906819D04EDFECE25F
:101E6000F1E068D0DD0F0BF09ED0DD0F0BF4905841
:101E7000DF91089534DF30F039DF20F031F49F3FF7
:101E800011F41EF429CF0EF4E095E7FB1FCFE92FE4
:101E900045DF80F3BA17620773078407950718F0C8
:101EA00071F49EF55DCF0EF4E0950B2EBA2FA02DA8
:101EB0000B01B90190010C01CA01A0011124FF27F7
:101EC000591B99F0593F50F4503E68F11A16F040F2
:101ED000A22F232F342F4427585FF3CF46953795F1
:101EE0002795A795F0405395C9F77EF41F16BA0BB6
:101EF000620B730B840BBAF09150A1F0FF0FBB1F64
:101F0000661F771F881FC2F70EC0BA0F621F731FAC
:101F1000841F48F4879577956795B795F7959E3F09
:101F200008F0B3CF9395880F08F09927EE0F979597
:101F3000879508959F938F937F936F93FF93EF936C
:101F40009B01AC0114DFEF91FF9142D02F913F91A3
:101F50004F915F910CCFC0CEE9DEE8F3E894E0E06A
:101F6000BB279F57F0F02AED3FE049EC06C0EE0F8B
:101F7000BB0F661F771F881F28F0B23A62077307EE
:101F8000840728F0B25A620B730B840BE3959A9581
:101F900072F7803830F49A95BB0F661F771F881F41
:101FA000D2F7904809C09B01AC0160E070E080E886
:101FB0009FE392CD9F3F31F0915020F48795779524
:101FC0006795B795880F911D9695879597F9089510
:101FD000DF93CF931F930F93FF92EF92DF927B01DA
:101FE0008C01689405C0DA2EEF01CDDEFE01E89485
:101FF000A5912591359145915591AEF3EF0147DFBC
:10200000FE019701A801DA9479F7DF90EF90FF9035
:102010000F911F91CF91DF910895A1E21A2EAA1B73
:10202000BB1BFD010DC0AA1FBB1FEE1FFF1FA21788
:10203000B307E407F50720F0A21BB30BE40BF50B85
:10204000661F771F881F991F1A9469F7609570950E
:10205000809590959B01AC01BD01CF010895EE0FD5
:10206000FF1F881F8BBF0790F691E02D199481E028
:0A20700090E0F89400C0F894FFCF50
:10207A00010000000001026B019A014702CB01A98D
:10208A0001BD010003070000000000000003030770
:10209A00000000000000000D0A0073746F70210038
:1020AA00595F646563726561736520696E697469F5
:0820BA00616C697A6564210084
:00000001FF
