:1000000038C1000067C1000065C1000063C1000085
:1000100061C100005FC100005DC100005BC1000064
:1000200059C1000057C1000055C1000053C1000074
:1000300051C100004FC100004DC10000B1C500001A
:1000400049C1000047C1000045C1000043C1000094
:1000500041C100003FC100003DC1000057C5000084
:1000600039C100003EC3000013C3000033C10000CB
:1000700031C100002FC100002DC100002BC10000C4
:1000800029C1000027C1000025C1000023C10000D4
:1000900021C100001FC100001DC100001BC10000E4
:1000A00019C1000017C1000015C1000013C10000F4
:1000B00011C100000FC100000DC100000BC1000004
:1000C00009C1000007C1000005C1000003C1000014
:1000D00001C10000FFC00000FDC00000FBC0000027
:1000E000F9C00000BB02BE02AD02B102B702F502C8
:1000F000C202C602CC02D002D402DA02DE02E2025E
:10010000F502E802EC02F002AE04B304B804C20443
:10011000CC044505D604DE04E604F004FA04040524
:1001200013051D054505270531053B050664EC1B38
:100130003C04BC163E3BE5B93CC93C37C29E5A3D27
:10014000660498083EEA69AAAA3E000000803F00C3
:1001500000002100240027002A002D003000330079
:1001600001010000040107010A010000220025002E
:1001700028002B002E003100340002010000050190
:1001800008010B01000020002300260029002C009C
:100190002F003200000100000301060109010505DE
:1001A0000505070508080808020202020A0A0808ED
:1001B000040404040101010101010101030303031B
:1001C00003030303040707070C0C0C0C0C0C0C0CAA
:1001D0000202020206060606060606060B0B0B0BBB
:1001E0000B0B0B0B010210202008081020401020E0
:1001F00040800201020108040201010204081020EB
:1002000040808040201008040201800402018040E8
:100210002010080402010804020101020408102051
:100220004080010204081020408000000A0B0209EF
:100230000C0D0E0807030401000000000000000080
:1002400000000000000000000000000000000000AE
:10025000000000000000121110000000000000006B
:10026000000000000000000000000000000000008E
:10027000BC0B11241FBECFEFD1E2DEBFCDBF00E02B
:100280000CBF12E0A0E0B2E0E6E3F2E200E00BBF58
:1002900002C007900D92AA32B107D9F722E0AAE274
:1002A000B2E001C01D92AB3FB207E1F711E0C9E334
:1002B000D1E000E006C021970109802FFE010E94D5
:1002C0000D11C833D10780E00807A9F70E94E90B98
:1002D0000C94191195CECF92DF92EF92FF920F936B
:1002E0001F93CF93DF936C017A018B01C0E0D0E0C4
:1002F000CE15DF0589F0D8016D918D01D601ED9104
:10030000FC910190F081E02DC6011995892B11F423
:100310007E0102C02196ECCFC701DF91CF911F91E2
:100320000F91FF90EF90DF90CF900895089580E0B7
:1003300090E00895FC01538D448D252F30E0842FEB
:1003400090E0821B930B541710F0CF9608950197FD
:100350000895FC01918D828D981761F0828DDF01E7
:10036000A80FB11D5D968C91928D9F5F9F73928FA8
:1003700090E008958FEF9FEF0895FC01918D828D9D
:10038000981731F0828DE80FF11D858D90E008956A
:100390008FEF9FEF0895FC01918D228D892F90E0C2
:1003A000805C9F4F821B91098F739927089580E489
:1003B00092E0F1DF21E0892B09F420E0822F0895FB
:1003C000FC01848DDF01A80FB11DA35ABF4F2C91F2
:1003D000848D90E001968F739927848FA689B789C1
:1003E0002C93A089B1898C9180648C93938D848D9A
:1003F000981306C00288F389E02D80818F7D808369
:100400000895EF92FF920F931F93CF93DF93EC0128
:1004100081E0888F9B8D8C8D981305C0E889F989C0
:10042000808185FD23C0F62E0B8D10E00F5F1F4FDE
:100430000F731127E02E8C8DE8120BC00FB607FC4E
:10044000FACFE889F989808185FFF5CFCE01B8DF41
:10045000F2CF8B8DFE01E80FF11DE35AFF4FF082C2
:100460000B8FEA89FB898081806207C0EE89FF8952
:100470006083E889F98980818064808381E090E0ED
:10048000DF91CF911F910F91FF90EF900895CF933F
:10049000DF93EC01888D8823C1F0EA89FB89808194
:1004A00085FD05C0A889B9898C9186FD0EC00FB65F
:1004B00007FCF5CF808185FFF2CFA889B9898C919F
:1004C00085FFEDCFCE017CDFE8CFDF91CF9108959E
:1004D00080E090E0892B19F06ADF811125C080E06F
:1004E00090E0892B41F080E090E0892B21F00E9480
:1004F000000081111CC080E090E0892B41F080E079
:1005000090E0892B21F00E940000811113C080E04F
:1005100090E0892BA1F080E090E0892B81F00E948F
:10052000000081110AC008950E940000D8CF0E94E7
:100530000000E1CF0E940000EACF0C940000089573
:1005400090E0FC013197E231F10508F04EC08827B8
:10055000EE58FF4F8F4F0C940D11809180008F77D4
:1005600003C0809180008F7D8093800008958091EA
:100570008000877FF9CF84B58F7702C084B58F7DE7
:1005800084BD08958091B0008F7703C08091B00042
:100590008F7D8093B0000895809190008F7707C081
:1005A000809190008F7D03C080919000877F809321
:1005B000900008958091A0008F7707C08091A000DF
:1005C0008F7D03C08091A000877F8093A000089555
:1005D000809120018F7707C0809120018F7D03C01B
:1005E00080912001877F8093200108958F929F92B0
:1005F000AF92BF920F931F93CF93DF93CDB7DEB728
:10060000A1970FB6F894DEBF0FBECDBF19A242303E
:1006100008F44AE08E010F5D1F4F842E912CA12C0F
:10062000B12CA50194010E94EB10E62FB901CA017B
:1006300001501109EA3014F4E05D01C0E95CD80111
:10064000EC93232B242B252B61F70115110569F061
:10065000F80101900020E9F73197AF01401B510BE1
:10066000B80180E492E037DE02C080E090E0A1961D
:100670000FB6F894DEBF0FBECDBFDF91CF911F91B3
:100680000F91BF90AF909F908F9008950E94151189
:100690001F920F920FB60F9211240BB60F922F9349
:1006A0003F934F935F936F937F938F939F93AF93FA
:1006B000BF93EF93FF9380E492E082DEFF91EF918E
:1006C000BF91AF919F918F917F916F915F914F916A
:1006D0003F912F910F900BBE0F900FBE0F901F9068
:1006E00018951F920F920FB60F9211240BB60F920E
:1006F0002F938F939F93EF93FF93E0915002F0918C
:1007000051028081E0915602F091570282FD12C0A1
:100710009081809159028F5F8F7320915A028217C6
:1007200051F0E0915902F0E0E05CFD4F958F80932D
:10073000590201C08081FF91EF919F918F912F917C
:100740000F900BBE0F900FBE0F901F901895CF9378
:10075000DF93282F30E0F901E65DFD4F8491F90128
:10076000EC51FE4FD491F901E256FE4FC491CC23D7
:1007700089F08111E5DEEC2FF0E0EE0FFF1FEC5762
:10078000FE4FA591B491EC91ED2381E090E021F42E
:1007900080E002C080E090E0DF91CF9108951F9348
:1007A000CF93DF93282F30E0F901E65DFD4F849170
:1007B000F901EC51FE4FD491F901E256FE4FC4917C
:1007C000CC23C1F0162F8111BBDEEC2FF0E0EE0F31
:1007D000FF1FE659FE4FA591B4918FB7F894111100
:1007E00005C09C91ED2FE095E92302C0EC91ED2B23
:1007F000EC938FBFDF91CF911F9108956AEF70E066
:1008000084E085D06AEF70E086E081D06AEF70E026
:1008100085E07DD06AEF70E087E079D06FEF86E108
:10082000BEDF6EEF87E1BBDF6EEF8AE1B8DF6FEF0F
:100830008BE1B5DF6EEF88E1B2DF6FEF89E1AFDF0B
:100840006FEF8CE1ACDF6EEF8DE1A9CFCF93DF933B
:1008500090E0FC01EC51FE4F2491FC01E256FE4F6A
:100860008491882361F190E0880F991FFC01E05B7F
:10087000FE4FC591D491FC01E659FE4FA591B4916C
:10088000611109C09FB7F8948881209582238883DD
:10089000EC912E230BC0623061F49FB7F89438813D
:1008A000822F809583238883EC912E2B2C939FBFDE
:1008B00006C08FB7F894E8812E2B28838FBFDF9175
:1008C000CF9108953FB7F8948091F7029091F80284
:1008D000A091F902B091FA0226B5A89B05C02F3F5E
:1008E00019F00196A11DB11D3FBFBA2FA92F982F56
:1008F0008827820F911DA11DB11DBC01CD0142E0D1
:10090000660F771F881F991F4A95D1F708951F9387
:10091000CF93DF93182FEB0161E098DF209711F45C
:1009200060E004C0CF3FD10531F461E0812FDF9159
:10093000CF911F9134CFE12FF0E0E65DFD4FE491C0
:100940004E2F50E0FA013197E231F10508F09DC0D9
:100950008827EC57FF4F8F4F0C940D1184B580689A
:1009600084BDC7BD97C084B5806284BDC8BD92C038
:1009700080918000806880938000D0938900C0932C
:10098000880088C080918000806280938000D0932E
:100990008B00C0938A007EC0809180008860809325
:1009A0008000D0938D00C0938C0074C08091B00003
:1009B00080688093B000C093B3006CC08091B00099
:1009C00080628093B000C093B40064C080919000B6
:1009D000806880939000D0939900C09398005AC08B
:1009E00080919000806280939000D0939B00C09390
:1009F0009A0050C080919000886080939000D093BE
:100A00009D00C0939C0046C08091A00080688093A8
:100A1000A0008091A0008F7B8093A000D093A900BC
:100A2000C093A80037C08091A00080628093A0008E
:100A3000D093AB00C093AA002DC08091A000886025
:100A40008093A000D093AD00C093AC0023C08091F0
:100A50002001806880932001D0932901C093280150
:100A600019C080912001806280932001D0932B01D6
:100A7000C0932A010FC080912001886080932001DB
:100A8000D0932D01C0932C0105C0C038D1050CF0C6
:100A90004CCF46CFDF91CF911F9108958F929F92B7
:100AA000AF92BF92CF92DF92EF92FF926B017C01E7
:100AB00009DF4B015C01C114D104E104F104E9F048
:100AC00001DFDC01CB0188199909AA09BB09883E1D
:100AD0009340A105B10578F321E0C21AD108E108DD
:100AE000F10888EE880E83E0981EA11CB11CC11489
:100AF000D104E104F10421F7DECFFF90EF90DF9005
:100B0000CF90BF90AF909F908F9008951F920F92BB
:100B10000FB60F9211242F933F938F939F93AF9310
:100B2000BF938091F3029091F402A091F502B091ED
:100B3000F6023091F20223E0230F2D3720F40196C4
:100B4000A11DB11D05C026E8230F0296A11DB11DF0
:100B50002093F2028093F3029093F402A093F502A3
:100B6000B093F6028091F7029091F802A091F902F9
:100B7000B091FA020196A11DB11D8093F7029093E6
:100B8000F802A093F902B093FA02BF91AF919F913E
:100B90008F913F912F910F900FBE0F901F9018953E
:100BA0001F920F920FB60F9211240BB60F922F9334
:100BB0003F934F935F936F937F938F939F93AF93E5
:100BC000BF93EF93FF938091F0029091F102809395
:100BD000B2008091EC029091ED02A091EE02B091F2
:100BE000EF020196A11DB11D8093EC029093ED02DE
:100BF000A093EE02B093EF028091EC029091ED028F
:100C0000A091EE02B091EF028091EB0281111AC027
:100C100081E08093EB028091EC029091ED02A09133
:100C2000EE02B091EF028093EC029093ED02A0935C
:100C3000EE02B093EF02E091E902F091EA02199519
:100C40001092EB02FF91EF91BF91AF919F918F9125
:100C50007F916F915F914F913F912F910F900BBEBC
:100C60000F900FBE0F901F90189590912A028091BF
:100C7000320291119FC1813009F456C01CF48823BF
:100C800041F0EEC1823009F4B5C0833009F41DC1D2
:100C9000E7C18091E702811104C09091E602992397
:100CA00041F09091E202911116C09091E4029111ED
:100CB00012C024EB30E0309331022093300240E048
:100CC00050E064E573E440932C0250932D0260934E
:100CD0002E0270932F029091E5022091E80291116B
:100CE00016C08823A1F02223A1F048EC50E05093D5
:100CF00031024093300240E050E06AE773E44093F1
:100D00002C0250932D0260932E0270932F0221111A
:100D1000B5C12091E602222309F4ABC1992309F45D
:100D2000ADC180EA90E049C08091E702811104C022
:100D30008091E602882341F08091E202811114C083
:100D40008091E402811110C01092310210923002A1
:100D500080E090E0A4E5B3E480932C0290932D0210
:100D6000A0932E02B0932F029091E3028091E102B2
:100D7000911118C02091E4022223A1F0882381F16F
:100D800024E130E0309331022093300240E050E023
:100D90006AE773E440932C0250932D0260932E0275
:100DA00070932F0281111AC09923D1F08091E20231
:100DB000882309F463C184E591E090933102809324
:100DC000300280E090E0AAE7B3E480932C02909395
:100DD0002D02A0932E02B0932F02089591114EC1BF
:100DE0009091E20291114AC19091E402992309F491
:100DF000D6C044C19091E8028091E60291110AC0E8
:100E00009091E702911106C0811104C09091E50212
:100E1000992381F09091E30291111EC09091E2021A
:100E200091111AC09091E402911116C09091E102C3
:100E3000911112C02AE530E0309331022093300244
:100E400040E050E064E573E440932C0250932D029F
:100E500060932E0270932F029091E002992321F06B
:100E60009091DF02911112C027E830E030933102F7
:100E70002093300240E050E06AE773E440932C0294
:100E800050932D0260932E0270932F029091DE02F8
:100E9000992321F09091DD02911112C02DE230E0F2
:100EA000309331022093300240E050E06AE773E46F
:100EB00040932C0250932D0260932E0270932F02C8
:100EC0008111DCC08091E4026AC09091E8028091B7
:100ED000E70291110AC0811108C09091E6029111B8
:100EE00004C09091E502992381F09091E302911161
:100EF0001EC09091E20291111AC09091E4029111EA
:100F000016C09091E102911112C02EE031E03093B1
:100F100031022093300240E050E064E573E44093F6
:100F20002C0250932D0260932E0270932F02909109
:100F30003402992321F090913302911112C02BE3D6
:100F400031E0309331022093300240E050E06AE714
:100F500073E440932C0250932D0260932E02709301
:100F60002F0290913602992321F090913502911130
:100F700012C021EE30E0309331022093300240E085
:100F800050E06AE773E440932C0250932D02609383
:100F90002E0270932F02811171C08091E2028111A3
:100FA0006DC080912B028F5F80932B0281E0809334
:100FB0002A020895813041F11CF4882341F050C089
:100FC000823009F43BC0833009F441C049C020910C
:100FD000E8028091E702082E000C990B820F911D08
:100FE00027FD9A952091E602820F911D27FD9A9583
:100FF0002091E502820F911D27FD9A9502970CF42E
:101000003DC010922A0208952091E3028091E202ED
:10101000082E000C990B820F911D27FD9A952091A7
:10102000E402820F911D27FD9A952091E102820F23
:10103000911D27FD9A95029724F708958091E60265
:101040008111DFCF8091E4028111DBCF089580917F
:10105000E7028111D6CF8091E2028111D2CF0895AB
:1010600010922C0210922D0210922E0210922F023A
:101070000895811103C0992309F493CF089582E262
:1010800066DB8093E00283E262DB8093DF0284E22E
:101090005EDB8093DE0285E25ADB8093DD0282E232
:1010A00056DB8093360288E252DB8093350287E27A
:1010B0004EDB8093340286E24ADB8093330281E286
:1010C00046DB8093E80280E242DB8093E7028FE117
:1010D0003EDB8093E6028EE13ADB8093E5028AE212
:1010E00036DB8093E3028BE232DB8093E2028CE218
:1010F0002EDB8093E4028DE22ADB8093E1020895E7
:101100008F929F92AF92BF92CF92DF92EF92FF9217
:101110000F931F93CF93DF9300D01F92CDB7DEB70D
:101120004C0188E6881681E09806A8F088E68816C3
:1011300081E0980654F088E6881A81E0980A88E6EB
:10114000881681E09806BCF706C088E9881A8EEFF9
:10115000980A97FCFACF77FD07C08B016B3F7105AA
:101160002CF00AEF10E002C008EC10E06801012E3C
:10117000000CEE08FF088DE2881691040CF407C1FC
:1011800054018DE2A81AB1088DE2A816B10408F442
:1011900049C1C4018A5591098D32910508F489C16C
:1011A000B401675871096D32710508F4CDC18A55D3
:1011B00091098D9708F40FC2540181EEA81AB10865
:1011C0008DE2A816B10408F451C0C4018E509140BC
:1011D0008D9708F092C06BE371E068197909072ECA
:1011E000000C880B990BF1D520E030E044E353E488
:1011F00051D52BED3FE049E450E497D6F9D69B0159
:10120000AC01C701B60129833A834B835C83DDD5EA
:1012100029813A814B815C8188D6A4D56B017C0100
:1012200084E075DBB60186E072DBB80185E06FDB38
:10123000B80187E06CDB60E086E1B1DA61E087E16C
:10124000AEDA61E08AE1ABDA60E08BE1A8DA61E076
:1012500088E1A5DA60E089E1A2DA60E08CE19FDA5A
:1012600061E08DE19CDA87E090E0FFC1B80184E0A5
:101270004EDBB80186E04BDBB501BB0C880B990B4C
:10128000A4D520E030E044E353E404D52BED3FE067
:1012900049E450E44AD6ACD69B01AC01C701B60183
:1012A00029833A834B835C8390D529813A814B8192
:1012B0005C813BD657D56B017C0185E028DBB6010C
:1012C00087E025DB60E086E16ADA61E087E167DAE2
:1012D00061E08AE164DA60E08BE161DA61E088E193
:1012E0005EDA60E089E15BDA60E08CE158DA61E0C7
:1012F0008DE155DA86E090E0B8C1B4016B537140DE
:10130000072E000C880B990B60D520E030E044E3F9
:1013100053E4C0D42BED3FE049E450E406D668D650
:101320009B01AC01C701B60129833A834B835C83DF
:101330004CD529813A814B815C81F7D513D56B015E
:101340007C0184E0E4DAB60186E0E1DAB80185E008
:10135000DEDAB80187E0DBDA61E086E120DA60E01E
:1013600087E11DDA60E08AE11ADA61E08BE117DAE1
:1013700061E088E114DA60E089E111DA60E08CE193
:101380000EDA61E08DE10BDA88E090E06EC1B80121
:1013900084E0BDDAB80186E0BADA6DE270E068197F
:1013A0007909072E000C880B990B0FD520E030E04F
:1013B00044E353E46FD42BED3FE049E450E4B5D56A
:1013C00017D69B01AC01C701B60129833A834B8331
:1013D0005C83FBD429813A814B815C81A6D5C2D440
:1013E0006B017C0185E093DAB60187E090DA61E079
:1013F00086E1D5D960E087E1D2D960E08AE1CFD932
:1014000061E08BE1CCD961E088E1C9D960E089E194
:10141000C6D960E08CE1C3D961E08DE1C0D981E03B
:1014200090E023C1B80184E072DAB80186E06FDA97
:10143000B501BB0C880B990BC8D420E030E044E325
:1014400053E428D42BED3FE049E450E46ED5D0D5E9
:101450009B01AC01C701B60129833A834B835C83AE
:10146000B4D429813A814B815C815FD57BD46B01F7
:101470007C0185E04CDAB60187E049DA61E086E17B
:101480008ED960E087E18BD960E08AE188D961E09C
:101490008BE185D960E088E182D961E089E17FD97B
:1014A00061E08CE17CD960E08DE179D982E090E067
:1014B000DCC067E870E068197909072E000C880B1A
:1014C000990B83D420E030E044E353E4E3D32BEDE5
:1014D0003FE049E450E429D58BD59B01AC01C7011D
:1014E000B60129833A834B835C836FD429813A8187
:1014F0004B815C811AD536D46B017C0184E007DA1C
:10150000B60186E004DAB80185E001DAB80187E0C7
:10151000FED961E086E143D960E087E140D960E02F
:101520008AE13DD961E08BE13AD960E088E137D9C1
:1015300061E089E134D961E08CE131D960E08DE18D
:101540002ED983E090E091C0072E000C880B990BF8
:101550003CD420E030E044E353E49CD32BED3FE067
:1015600049E450E4E2D444D59B01AC01C701B60183
:1015700029833A834B835C8328D429813A814B8128
:101580005C81D3D4EFD36B017C0184E0C0D9B60178
:1015900086E0BDD9B80185E0BAD9B80187E0B7D9EE
:1015A00060E086E1FCD861E087E1F9D861E08AE19A
:1015B000F6D860E08BE1F3D860E088E1F0D861E034
:1015C00089E1EDD861E08CE1EAD860E08DE1E7D80F
:1015D00084E090E04AC0B80184E099D9B80186E07F
:1015E00096D961EE70E068197909072E000C880B16
:1015F000990BEBD320E030E044E353E44BD32BEDE5
:101600003FE049E450E491D4F3D49B01AC01C7011D
:10161000B60129833A834B835C83D7D329813A81EE
:101620004B815C8182D49ED36B017C0185E06FD9B4
:10163000B60187E06CD960E086E1B1D861E087E16E
:10164000AED861E08AE1ABD860E08BE1A8D860E079
:1016500088E1A5D861E089E1A2D861E08CE19FD85A
:1016600060E08DE19CD885E090E00F900F900F90A6
:101670000F90DF91CF911F910F91FF90EF90DF902E
:10168000CF90BF90AF909F908F90089580E090E0B2
:10169000A8E4B3E480932C0290932D02A0932E0231
:1016A000B0932F02809132028130C1F11CF4882363
:1016B00039F008958230F9F0833009F44AC0089572
:1016C000109231021092300268EC70E080E090E0FD
:1016D00017DDD5DC8091E8028111FBCF8091E70214
:1016E0008111F7CF8091E6028111F3CF8091E5025D
:1016F0008111EFCF08958EE091E0909331028093B5
:10170000300268EC70E0FCDCBADC8091E60281110A
:10171000FBCF8091E4028111F7CF089584EB90E034
:10172000909331028093300268EC70E0E9DCA7DC32
:101730008091E3028111FBCF8091E2028111F7CF0A
:101740008091E4028111F3CF8091E1028111EFCF0A
:1017500008958AE590E0909331028093300268EC1E
:1017600070E0CEDC8CDC8091E7028111FBCF8091B0
:10177000E2028111F7CF0895E0E4F2E013821282D1
:1017800088EE93E0A0E0B0E084839583A683B783DE
:1017900085E092E09183808385EC90E09587848753
:1017A00084EC90E09787868780EC90E0918B808B2B
:1017B00081EC90E0938B828B82EC90E0958B848B14
:1017C00086EC90E0978B868B118E128E138E148E82
:1017D0000895789484B5826084BD84B5816084BDA9
:1017E00085B5826085BD85B5816085BD80916E00BF
:1017F000816080936E0010928100809181008260F0
:10180000809381008091810081608093810080912C
:1018100080008160809380008091B100846080931B
:10182000B1008091B00081608093B0008091910000
:1018300082608093910080919100816080939100FB
:10184000809190008160809390008091A1008260DF
:101850008093A1008091A10081608093A10080917C
:10186000A00081608093A00080912101826080931C
:1018700021018091210181608093210180912001CB
:1018800081608093200180917A00846080937A0047
:1018900080917A00826080937A0080917A008160E2
:1018A00080937A0080917A00806880937A00109209
:1018B000C100E0915002F091510282E08083E091FA
:1018C0004C02F0914D021082E0914E02F0914F02D5
:1018D0008FEC808310925802E0915402F0915502EF
:1018E00086E08083E0915202F09153028081806112
:1018F0008083E0915202F09153028081886080835E
:10190000E0915202F0915302808180688083E091DF
:101910005202F091530280818F7D808360E082E2E9
:101920000E94260460E083E20E94260460E084E2D4
:101930000E94260460E085E20E94260460E089E2BD
:101940000E94260460E088E20E94260460E087E2AC
:101950000E94260460E086E20E94260460E081E2A4
:101960000E94260460E080E20E94260460E08FE18D
:101970000E94260460E08EE10E94260460E08AE274
:101980000E94260460E08BE20E94260460E08CE264
:101990000E94260460E08DE20E94260461E086E158
:1019A0000E94260461E087E10E94260461E08BE149
:1019B0000E94260461E08BE10E94260461E088E138
:1019C0000E94260461E089E10E94260461E08CE126
:1019D0000E94260461E08DE10E94260461E084E01B
:1019E0000E94260461E086E00E94260461E085E012
:1019F0000E94260461E087E00E942604E0913702FD
:101A00000E2E000CFF0BED5EFD4F808180933202A5
:101A100099249394C12CD12C8AE7E82E83E4F82EE4
:101A20009AE5692E712C0EE011E024EBA22EB12C68
:101A300026DB90913502809134022091360248EEE7
:101A400053E024031001259F300C112454E6950225
:101A5000200C311C11249AE08902200C311C112425
:101A600080913302280E311C87FD3A9430923F0258
:101A700020923E02032C000C4408550857FE14C067
:101A8000E0914002F09141020190F081E02D6DE281
:101A900080E492E0199566277727CB0162197309D4
:101AA000840995094AE003C04AE0C201B1010E94DD
:101AB000F60242E050E067E272E080E492E00E94C9
:101AC0006B0180913202813001F11CF4882339F0DE
:101AD000B4C0823079F1833009F441C0AEC0809146
:101AE0000002882309F452C0B0923102A092300261
:101AF000C0922C02D0922D02E0922E02F0922F0280
:101B00006AEF70E084EB90E03EC080910002882391
:101B1000E9F11092310210923002C0922C02D09260
:101B20002D02E0922E02F0922F026AEF70E080E028
:101B300090E029C080910002882341F17092310227
:101B400060923002C0922C02D0922D02E0922E02BE
:101B5000F0922F026AEF70E08AE590E014C0809165
:101B60000002882399F01093310200933002C09252
:101B70002C02D0922D02E0922E02F0922F026AEFF8
:101B800070E08EE091E0BCDA109200026ED8C09155
:101B90003002D091310280913C0290913D02C817F1
:101BA000D90799F4209138023091390240913A02D4
:101BB00050913B0260912C0270912D0280912E0277
:101BC00090912F0263D081110BC060912C02709113
:101BD0002D0280912E0290912F02C4D0CE0190DA76
:101BE00050902B02C0913702EC2F0C2E000CFF0BF3
:101BF000ED5EFD4FD2855D1208C00E94FE0368EEC7
:101C000073E080E090E00E944E0580912A028823D4
:101C1000E1F05D16D4F03ADDE1E0EC0FE09337023D
:101C20000E2E000CFF0BED5EFD4F80818093320283
:101C300010922B029092000208C010922C02109277
:101C40002D0210922E0210922F028091300290915C
:101C5000310290933D0280933C0280912C0290913E
:101C60002D02A0912E02B0912F0280933802909302
:101C70003902A0933A02B0933B0262E370E080E045
:101C800090E00E944E050E946802D2CED9D008F49E
:101C900081E008950CD00FC107D140F0FED030F0A4
:101CA00021F45F3F19F0F0C0511139C1F3C014D1D4
:101CB00098F39923C9F35523B1F3951B550BBB2713
:101CC000AA2762177307840738F09F5F5F4F220FC0
:101CD000331F441FAA1FA9F333D00E2E3AF0E0E8B9
:101CE00030D091505040E695001CCAF729D0FE2F05
:101CF00027D0660F771F881FBB1F26173707480797
:101D0000AB07B0E809F0BB0B802DBF01FF2793584C
:101D10005F4F2AF09E3F510568F0B6C000C15F3F9B
:101D2000ECF3983EDCF3869577956795B795F79534
:101D30009F5FC9F7880F911D9695879597F908952C
:101D4000E1E0660F771F881FBB1F621773078407C8
:101D5000BA0720F0621B730B840BBA0BEE1F88F7D7
:101D6000E095089504D06894B111D9C00895BCD00D
:101D700088F09F5790F0B92F9927B751A0F0D1F074
:101D8000660F771F881F991F1AF0BA95C9F712C0FE
:101D9000B13081F0C3D0B1E00895C0C0672F782F73
:101DA0008827B85F39F0B93FCCF38695779567956A
:101DB000B395D9F73EF490958095709561957F4FD6
:101DC0008F4F9F4F0895E89409C097FB3EF490957C
:101DD0008095709561957F4F8F4F9F4F9923A9F004
:101DE000F92F96E9BB279395F69587957795679593
:101DF000B795F111F8CFFAF4BB0F11F460FF1BC0D7
:101E00006F5F7F4F8F4F9F4F16C0882311F096E969
:101E100011C0772321F09EE8872F762F05C0662317
:101E200071F096E8862F70E060E02AF09A95660FD0
:101E3000771F881FDAF7880F9695879597F9089589
:101E4000990F0008550FAA0BE0E8FEEF16161706CB
:101E5000E807F907C0F012161306E407F50798F033
:101E6000621B730B840B950B39F40A2661F0232B4C
:101E7000242B252B21F408950A2609F4A140A695C8
:101E80008FEF811D811D089597F99F6780E870E0AD
:101E900060E008959FEF80EC089500240A941616E0
:101EA000170618060906089500240A941216130648
:101EB000140605060895092E0394000C11F48823D6
:101EC00052F0BB0F40F4BF2B11F460FF04C06F5FF2
:101ED0007F4F8F4F9F4F089557FD9058440F551FC8
:101EE00059F05F3F71F04795880F97FB991F61F09C
:101EF0009F3F79F087950895121613061406551F13
:101F0000F2CF4695F1DF08C0161617061806991F7E
:101F1000F1CF86957105610508940895E894BB2773
:101F200066277727CB0197F908950BD0C4CFB5DF8B
:101F300028F0BADF18F0952309F0A6CFABCF112413
:101F4000EECFCADFA0F3959FD1F3950F50E0551F58
:101F5000629FF001729FBB27F00DB11D639FAA27FE
:101F6000F00DB11DAA1F649F6627B00DA11D661F4D
:101F7000829F2227B00DA11D621F739FB00DA11D6E
:101F8000621F839FA00D611D221F749F3327A00D28
:101F9000611D231F849F600D211D822F762F6A2FC4
:101FA00011249F5750408AF0E1F088234AF0EE0F49
:101FB000FF1FBB1F661F771F881F91505040A9F756
:101FC0009E3F510570F060CFAACF5F3FECF3983E83
:101FD000DCF3869577956795B795F795E7959F5FBD
:101FE000C1F7FE2B880F911D9695879597F9089557
:101FF000DF93D92F8FD0E695D7952AED3FE049E4BE
:102000005FE3B33A6207730784079507D7952AF011
:10201000A2EA49EC906819D04EDFECE2F1E068D01A
:10202000DD0F0BF09ED0DD0F0BF49058DF9108957B
:1020300034DF30F039DF20F031F49F3F11F41EF42B
:1020400029CF0EF4E095E7FB1FCFE92F45DF80F3A2
:10205000BA17620773078407950718F071F49EF5A5
:102060005DCF0EF4E0950B2EBA2FA02D0B01B90118
:1020700090010C01CA01A0011124FF27591B99F0FE
:10208000593F50F4503E68F11A16F040A22F232F0A
:10209000342F4427585FF3CF469537952795A7955A
:1020A000F0405395C9F77EF41F16BA0B620B730B01
:1020B000840BBAF09150A1F0FF0FBB1F661F771F72
:1020C000881FC2F70EC0BA0F621F731F841F48F427
:1020D000879577956795B795F7959E3F08F0B3CFAD
:1020E0009395880F08F09927EE0F97958795089597
:1020F0009F938F937F936F93FF93EF939B01AC011B
:1021000014DFEF91FF9142D02F913F914F915F915A
:102110000CCFC0CEE9DEE8F3E894E0E0BB279F57A0
:10212000F0F02AED3FE049EC06C0EE0FBB0F661F52
:10213000771F881F28F0B23A62077307840728F0D8
:10214000B25A620B730B840BE3959A9572F7803841
:1021500030F49A95BB0F661F771F881FD2F79048FF
:1021600009C09B01AC0160E070E080E89FE392CD84
:102170009F3F31F0915020F4879577956795B795FB
:10218000880F911D9695879597F90895DF93CF93C2
:102190001F930F93FF92EF92DF927B018C01689463
:1021A00005C0DA2EEF01CDDEFE01E894A591259160
:1021B000359145915591AEF3EF0147DFFE0197014F
:1021C000A801DA9479F7DF90EF90FF900F911F91BB
:1021D000CF91DF910895A1E21A2EAA1BBB1BFD012E
:1021E0000DC0AA1FBB1FEE1FFF1FA217B307E407F6
:1021F000F50720F0A21BB30BE40BF50B661F771F4E
:10220000881F991F1A9469F760957095809590952D
:102210009B01AC01BD01CF010895EE0FFF1F881F88
:102220008BBF0790F691E02D199481E090E0F8942F
:0622300000C0F894FFCF8E
:10223600010000000001026B019A014702CB01A9CF
:1022460001BD0100030700000000000000030307B2
:0A225600000000000000000D0A0067
:00000001FF
