:1000000038C100000C941408E4C70000B7C7000012
:100010008AC700005DC7000030C7000003C70000AA
:10002000D6C6000057C1000055C1000053C10000F2
:1000300051C100004FC100004DC100000C943F08A9
:1000400049C1000047C1000045C1000043C1000094
:1000500041C100003FC100003DC100000C946A098D
:1000600039C1000058C200002DC2000033C1000099
:1000700031C100002FC100002DC100002BC10000C4
:1000800029C1000027C1000025C1000023C10000D4
:1000900021C100001FC100001DC100001BC10000E4
:1000A00019C1000017C1000015C1000013C10000F4
:1000B00011C100000FC100000DC100000BC1000004
:1000C00009C1000007C1000005C1000003C1000014
:1000D00001C10000FFC00000FDC00000FBC0000027
:1000E000F9C00000DC02DF02CE02D202D802160301
:1000F000E302E702ED02F102F502FB02FF02030355
:10010000160309030D031103FA03FF0304040E048D
:100110001804910422042A0432043C0446045004C6
:100120005F046904910473047D0487040664EC1B76
:100130003C04BC163E3BE5B93CC93C37C29E5A3D27
:10014000660498083EEA69AAAA3E000000803F00C3
:1001500000002100240027002A002D003000330079
:1001600001010000040107010A010000220025002E
:1001700028002B002E003100340002010000050190
:1001800008010B01000020002300260029002C009C
:100190002F003200000100000301060109010505DE
:1001A0000505070508080808020202020A0A0808ED
:1001B000040404040101010101010101030303031B
:1001C00003030303040707070C0C0C0C0C0C0C0CAA
:1001D0000202020206060606060606060B0B0B0BBB
:1001E0000B0B0B0B010210202008081020401020E0
:1001F00040800201020108040201010204081020EB
:1002000040808040201008040201800402018040E8
:100210002010080402010804020101020408102051
:100220004080010204081020408000000A0B0209EF
:100230000C0D0E0807030401000000000000000080
:1002400000000000000000000000000000000000AE
:10025000000000000000121110000000000000006B
:10026000000000000000000000000000000000008E
:10027000BD0C11241FBECFEFD1E2DEBFCDBF00E029
:100280000CBF12E0A0E0B2E0E6E8FFE100E00BBF47
:1002900002C007900D92A833B107D9F723E0A8E375
:1002A000B2E001C01D92A831B207E1F711E0C9E345
:1002B000D1E000E006C021970109802FFE010E94D5
:1002C0000C0DC833D10780E00807A9F70E94B409D4
:1002D0000C94C10F95CEFC01918D828D981761F021
:1002E000828DDF01A80FB11D5D968C91928D9F5F6D
:1002F0009F73928F90E008958FEF9FEF0895FC0118
:10030000918D828D981731F0828DE80FF11D858DCA
:1003100090E008958FEF9FEF0895FC01918D228D5D
:10032000892F90E0805C9F4F821B91098F739927E2
:10033000089582E792E0F1DF21E0892B09F420E0C3
:10034000822F0895FC01848DDF01A80FB11DA35AEF
:10035000BF4F2C91848D90E001968F739927848FE5
:10036000A689B7892C93A089B1898C9180648C93DC
:10037000938D848D981306C00288F389E02D8081C7
:100380008F7D80830895EF92FF920F931F93CF93F9
:10039000DF93EC0181E0888F9B8D8C8D981305C0D5
:1003A000E889F989808185FD23C0F62E0B8D10E048
:1003B0000F5F1F4F0F731127E02E8C8DE8120BC0BB
:1003C0000FB607FCFACFE889F989808185FFF5CF60
:1003D000CE01B8DFF2CF8B8DFE01E80FF11DE35A9D
:1003E000FF4FF0820B8FEA89FB898081806207C012
:1003F000EE89FF896083E889F98980818064808340
:1004000081E090E0DF91CF911F910F91FF90EF90ED
:100410000895CF93DF93EC01888D8823C1F0EA899A
:10042000FB89808185FD05C0A889B9898C9186FDED
:100430000EC00FB607FCF5CF808185FFF2CFA889EB
:10044000B9898C9185FFEDCFCE017CDFE8CFDF91BC
:10045000CF91089580E090E0892B19F06ADF811137
:1004600025C080E090E0892B41F080E090E0892B6E
:1004700021F00E94000081111CC080E090E0892BD7
:1004800041F080E090E0892B21F00E940000811172
:1004900013C080E090E0892BA1F080E090E0892BF0
:1004A00081F00E94000081110AC008950E9400009E
:1004B000D8CF0E940000E1CF0E940000EACF0C9448
:1004C000000008951F920F920FB60F9211240BB6E1
:1004D0000F922F933F934F935F936F937F938F93DD
:1004E0009F93AF93BF93EF93FF9382E792E02ADF4E
:1004F000FF91EF91BF91AF919F918F917F916F91FC
:100500005F914F913F912F910F900BBE0F900FBEB7
:100510000F901F9018951F920F920FB60F921124F3
:100520000BB60F922F938F939F93EF93FF93E091CE
:100530008202F09183028081E0918802F091890229
:1005400082FD12C0908180918B028F5F8F7320910A
:100550008C02821751F0E0918B02F0E0EE58FD4FD3
:10056000958F80938B0201C08081FF91EF919F91C5
:100570008F912F910F900BBE0F900FBE0F901F9079
:10058000189590E0FC013197E231F10508F04EC07A
:100590008827EE58FF4F8F4F0C940C0D80918000F0
:1005A0008F7703C0809180008F7D809380000895B5
:1005B00080918000877FF9CF84B58F7702C084B5A2
:1005C0008F7D84BD08958091B0008F7703C08091A6
:1005D000B0008F7D8093B0000895809190008F7758
:1005E00007C0809190008F7D03C080919000877F2D
:1005F0008093900008958091A0008F7707C080912C
:10060000A0008F7D03C08091A000877F8093A00011
:100610000895809120018F7707C0809120018F7D00
:1006200003C080912001877F8093200108951F934C
:10063000CF93DF93282F30E0F901E65DFD4F8491E1
:10064000F901EC51FE4FD491F901E256FE4FC491ED
:10065000CC23C1F0162F811194DFEC2FF0E0EE0FC8
:10066000FF1FE659FE4FA591B4918FB7F894111171
:1006700005C09C91ED2FE095E92302C0EC91ED2B94
:10068000EC938FBFDF91CF911F91089508958091D2
:1006900070029091710201969093710280937002A2
:1006A000089580916E0290916F02019690936F026F
:1006B00080936E02089580916C0290916D02019674
:1006C00090936D0280936C02089580916A029091DC
:1006D0006B02019690936B0280936A020895CF9308
:1006E000DF93282F30E0F901E65DFD4F8491F90199
:1006F000EC51FE4FD491F901E256FE4FC491CC2348
:1007000089F081113EDFEC2FF0E0EE0FFF1FEC5778
:10071000FE4FA591B491EC91ED2381E090E021F49E
:1007200080E002C080E090E0DF91CF910895CF9308
:10073000DF9390E0FC01EC51FE4F2491FC01E25666
:10074000FE4F8491882361F190E0880F991FFC018E
:10075000E05BFE4FC591D491FC01E659FE4FA59197
:10076000B491611109C09FB7F894888120958223C4
:100770008883EC912E230BC0623061F49FB7F8940C
:100780003881822F809583238883EC912E2B2C93A4
:100790009FBF06C08FB7F894E8812E2B28838FBFA8
:1007A000DF91CF9108951F93CF93DF93182FEB0123
:1007B00061E0BDDF209711F460E004C0CF3FD105B8
:1007C00031F461E0812FDF91CF911F9130CFE12F84
:1007D000F0E0E65DFD4FE4914E2F50E0FA013197D5
:1007E000E231F10508F09DC08827EC57FF4F8F4F8D
:1007F0000C940C0D84B5806884BDC7BD97C084B5CA
:10080000806284BDC8BD92C0809180008068809362
:100810008000D0938900C093880088C080918000B8
:10082000806280938000D0938B00C0938A007EC04A
:1008300080918000886080938000D0938D00C09369
:100840008C0074C08091B00080688093B000C09329
:10085000B3006CC08091B00080628093B000C09300
:10086000B40064C080919000806880939000D09321
:100870009900C09398005AC0809190008062809344
:100880009000D0939B00C0939A0050C0809190003C
:10089000886080939000D0939D00C0939C0046C0D8
:1008A0008091A00080688093A0008091A0008F7B41
:1008B0008093A000D093A900C093A80037C0809176
:1008C000A00080628093A000D093AB00C093AA00E8
:1008D0002DC08091A00088608093A000D093AD00CF
:1008E000C093AC0023C080912001806880932001D8
:1008F000D0932901C093280119C080912001806202
:1009000080932001D0932B01C0932A010FC08091C6
:100910002001886080932001D0932D01C0932C0189
:1009200005C0C038D1050CF04CCF46CFDF91CF9138
:100930001F9108958F929F92AF92BF92CF92DF92B4
:10094000EF92FF920F931F93CF93DF93C0904502D6
:10095000D0904602E0904702F0904802C0914902D0
:10096000D0914A02C83681E0D80778F0C83681E0D5
:10097000D8073CF0C856D140C83681E0D807D4F734
:1009800004C0C859DE4FD7FDFCCF20E030E0A901FC
:10099000C701B6010E94140D87FD0AC020E030E0B7
:1009A00040E85FE3C701B6010E94630E181644F4E5
:1009B0008DECC82E8CECD82E8CE4E82E8FE3F82E2C
:1009C000CD32D1050CF4C7C08E010D5211090D3284
:1009D000110508F40DC1CE018A5591098D3291059A
:1009E00008F431C10A5511090D32110508F46EC120
:1009F0008A5591098D32910508F492C10A55110961
:100A00000D321105C0F18A5591098D9708F073C018
:100A100020E030E04AE753E4C701B6010E94670EC8
:100A20006B017C018BE391E08C1B9D0BBC01990F4A
:100A3000880B990B0E94B30D20E030E044E353E4AF
:100A4000F7D72BED3FE049E450E40E94670E0E9487
:100A5000CA0E9B01AC01C701B6010E94670E0E943D
:100A6000800D4B015C0184E09EDEB40186E09BDEDC
:100A7000C701B6012CC020E030E04AE753E4C701CB
:100A8000B6010E94670E6B017C010E94800D4B0134
:100A90005C0184E088DEB40186E085DEB801110FD8
:100AA000880B990B0E94B30D20E030E044E353E43F
:100AB000BFD72BED3FE049E450E40E94670E0E944F
:100AC000CA0E9B01AC01C701B6010E94670E0E94CD
:100AD000800D6B017C0185E066DEB60187E063DE98
:100AE00060E086E1A4DD61E087E1A1DD61E08AE10B
:100AF0009EDD60E070C020E030E04AE753E4C701CB
:100B0000B6010E94670E6B017C01CB53D140BE0140
:100B1000DD0F880B990B0E94B30D20E030E044E319
:100B200053E486D72BED3FE049E450E40E94670E82
:100B30000E94CA0E9B01AC01C701B6010E94670E5C
:100B4000DFD74B015C0184E02EDEB40186E02BDEB2
:100B5000C701B6012EC020E030E04AE753E4C701E8
:100B6000B6010E94670E6B017C01CAD74B015C0184
:100B700084E019DEB40186E016DE8DE290E08C1B85
:100B80009D0BBC01990F880B990BEDD720E030E04D
:100B900044E353E44DD72BED3FE049E450E40E9499
:100BA000670E0E94CA0E9B01AC01C701B6010E94EC
:100BB000670EA6D76B017C0185E0F5DDB60187E005
:100BC000F2DD61E086E133DD60E087E130DD60E0A9
:100BD0008AE12DDD61E08BE12ADD61E088E127DD3E
:100BE00060E089E124DD60E08CE121DD61E0E1C0CD
:100BF00020E030E04AE753E4C701B6010E94670EE7
:100C00006B017C017DD74B015C0184E0CCDDB4013C
:100C100086E0C9DDB801110F880B990BA4D720E03D
:100C200030E044E353E404D72BED3FE049E450E4E3
:100C30000E94670E0E94CA0E9B01AC01C701B6015B
:100C40000E94670E30C020E030E04AE753E4C7015D
:100C5000B6010E94670E6B017C0187E890E08C1B57
:100C60009D0BBC01990F880B990B7DD720E030E0DC
:100C700044E353E4DDD62BED3FE049E450E40E9429
:100C8000670E0E94CA0E9B01AC01C701B6010E940B
:100C9000670E36D74B015C0184E085DDB40186E048
:100CA00082DDC701B6012CD76B017C0185E07BDDBD
:100CB000B60187E078DD61E086E1B9DC60E087E1DC
:100CC000B6DC60E08AE1B3DC61E067C020E030E0E0
:100CD0004AE753E4C701B601FAD76B017C01B801BA
:100CE000110F880B990B3FD720E030E044E353E429
:100CF0009FD62BED3FE049E450E4E9D70E94CA0EAD
:100D00009B01AC01C701B601E2D7FAD64B015C01E9
:100D100084E049DDB40186E046DDC701B6012BC0A1
:100D200020E030E04AE753E4C701B601D0D76B01B9
:100D30007C01E6D64B015C0184E035DDB40186E040
:100D400032DD81EE90E08C1B9D0BBC01990F880B6E
:100D5000990B09D720E030E044E353E469D62BED4A
:100D60003FE049E450E4B3D70E94CA0E9B01AC01B6
:100D7000C701B601ACD7C4D66B017C0185E013DD99
:100D8000B60187E010DD60E086E151DC61E087E1DB
:100D90004EDC61E08AE14BDC60E08BE148DC60E046
:100DA00088E145DC61E089E142DC61E08CE13FDC27
:100DB00060E08DE1DF91CF911F910F91FF90EF9057
:100DC000DF90CF90BF90AF909F908F9030CC1F92CC
:100DD0000F920FB60F9211240BB60F922F933F93E1
:100DE0004F935F936F937F938F939F93AF93BF9333
:100DF000EF93FF93E0910E02F0910F021995FF918E
:100E0000EF91BF91AF919F918F917F916F915F9182
:100E10004F913F912F910F900BBE0F900FBE0F90EF
:100E20001F9018951F920F920FB60F9211240BB6B8
:100E30000F922F933F934F935F936F937F938F9373
:100E40009F93AF93BF93EF93FF93E0910C02F091C8
:100E50000D021995FF91EF91BF91AF919F918F91E5
:100E60007F916F915F914F913F912F910F900BBEAA
:100E70000F900FBE0F901F9018951F920F920FB6F4
:100E80000F9211240BB60F922F933F934F935F93C2
:100E90006F937F938F939F93AF93BF93EF93FF9342
:100EA000E0910202F09103021995FF91EF91BF9139
:100EB000AF919F918F917F916F915F914F913F91F2
:100EC0002F910F900BBE0F900FBE0F901F90189593
:100ED0001F920F920FB60F9211240BB60F922F9301
:100EE0003F934F935F936F937F938F939F93AF93B2
:100EF000BF93EF93FF93E0910002F09101021995E7
:100F0000FF91EF91BF91AF919F918F917F916F91E1
:100F10005F914F913F912F910F900BBE0F900FBE9D
:100F20000F901F9018951F920F920FB60F921124D9
:100F30000BB60F922F933F934F935F936F937F93D3
:100F40008F939F93AF93BF93EF93FF93E0910A0228
:100F5000F0910B021995FF91EF91BF91AF919F9185
:100F60008F917F916F915F914F913F912F910F9052
:100F70000BBE0F900FBE0F901F9018951F920F92EF
:100F80000FB60F9211240BB60F922F933F934F93EE
:100F90005F936F937F938F939F93AF93BF93EF93E1
:100FA000FF93E0910802F09109021995FF91EF91EA
:100FB000BF91AF919F918F917F916F915F914F9171
:100FC0003F912F910F900BBE0F900FBE0F901F906F
:100FD00018951F920F920FB60F9211240BB60F9215
:100FE0002F933F934F935F936F937F938F939F9331
:100FF000AF93BF93EF93FF93E0910602F091070246
:101000001995FF91EF91BF91AF919F918F917F9132
:101010006F915F914F913F912F910F900BBE0F9069
:101020000FBE0F901F9018951F920F920FB60F9240
:1010300011240BB60F922F933F934F935F936F93AF
:101040007F938F939F93AF93BF93EF93FF93E09121
:101050000402F09105021995FF91EF91BF91AF91B4
:101060009F918F917F916F915F914F913F912F91C0
:101070000F900BBE0F900FBE0F901F9018951F92F0
:101080000F920FB60F9211240BB60F922F933F932E
:101090004F935F936F937F938F939F93AF93BF9380
:1010A000EF93FF9380913E0290913F028093B200B4
:1010B0008091410290914202A0914302B09144027A
:1010C0000196A11DB11D8093410290934202A0930D
:1010D0004302B09344028091410290914202A09158
:1010E0004302B091440240913A0250913B02609118
:1010F0003C0270913D0284179507A607B70710F1CF
:101100008091400281111EC081E080934002809155
:10111000410290914202A0914302B0914402841B8B
:10112000950BA60BB70B8093410290934202A093BC
:101130004302B0934402E0913802F09139021995CC
:1011400010924002FF91EF91BF91AF919F918F91CB
:101150007F916F915F914F913F912F910F900BBEB7
:101160000F900FBE0F901F901895CF92DF92EF92C5
:10117000FF920F931F93CF93DF936C017A018B0142
:10118000C0E0D0E0CE15DF0589F0D8016D918D016A
:10119000D601ED91FC910190F081E02DC6011995E9
:1011A000892B11F47E0102C02196ECCFC701DF919B
:1011B000CF911F910F91FF90EF90DF90CF90089506
:1011C0008F929F92AF92BF920F931F93CF93DF9313
:1011D000CDB7DEB7A1970FB6F894DEBF0FBECDBF77
:1011E00019A2423008F44AE08E010F5D1F4F842E91
:1011F000912CA12CB12CA5019401ECD3E62FB901BF
:10120000CA0101501109EA3014F4E05D01C0E95C43
:10121000D801EC93232B242B252B69F701151105FD
:1012200069F0F80101900020E9F73197AF01401B08
:10123000510BB80182E792E098DF02C080E090E0B5
:10124000A1960FB6F894DEBF0FBECDBFDF91CF9150
:101250001F910F91BF90AF909F908F9008958DD662
:10126000CF92DF92EF92FF92CF93DF936C01990FB1
:10127000EE08FF08F7FE19C0E0917202F0917302C8
:101280000190F081E02D6DE282E792E01995EC018A
:1012900066277727CB016C197D098E099F094AE0E3
:1012A0008FDF7C01EC0EFD1E05C04AE0C701B601D0
:1012B00087DF7C0142E050E064E372E082E792E085
:1012C00054DF8E0D9F1DDF91CF91FF90EF90DF9047
:1012D000CF9008951F920F920FB60F9211242F9363
:1012E0003F938F939F93AF93BF93809114039091FB
:1012F0001503A0911603B09117033091130323E057
:10130000230F2D3720F40196A11DB11D05C026E83D
:10131000230F0296A11DB11D209313038093140384
:1013200090931503A0931603B093170380910F03B6
:1013300090911003A0911103B09112030196A11D89
:10134000B11D80930F0390931003A0931103B093EA
:101350001203BF91AF919F918F913F912F910F9069
:101360000FBE0F901F901895CF93DF931F921F927F
:10137000CDB7DEB7789484B5826084BD84B58160D2
:1013800084BD85B5826085BD85B5816085BD809150
:101390006E00816080936E001092810080918100C8
:1013A00082608093810080918100816080938100C0
:1013B000809180008160809380008091B100846082
:1013C0008093B1008091B00081608093B0008091E3
:1013D0009100826080939100809191008160809360
:1013E0009100809190008160809390008091A10095
:1013F00082608093A1008091A10081608093A10010
:101400008091A00081608093A00080912101826082
:10141000809321018091210181608093210180913D
:10142000200181608093200180917A008460809304
:101430007A0080917A00826080937A0080917A00AD
:10144000816080937A0080917A00806880937A002E
:101450001092C100E0918202F091830282E08083C9
:10146000E0917E02F0917F021082E0918002F09183
:1014700081028FEC808310928A02E0918602F091C3
:10148000870286E08083E0918402F091850280816A
:1014900080618083E0918402F09185028081886080
:1014A0008083E0918402F09185028081806880834E
:1014B000E0918402F091850280818F7D808360E0DD
:1014C00082E235D960E083E232D960E084E22FD94C
:1014D00060E085E22CD960E089E229D960E088E209
:1014E00026D960E087E223D960E086E220D960E077
:1014F00081E21DD960E080E21AD960E08FE117D95E
:1015000060E08EE114D960E08AE211D960E08BE2FC
:101510000ED960E08CE20BD960E08DE208D961E081
:1015200086E105D961E087E102D961E08BE1FFD86E
:1015300061E08BE1FCD861E088E1F9D861E089E104
:10154000F6D861E08CE1F3D861E08DE1F0D861E09C
:1015500084E0EDD861E086E0EAD861E085E0E7D894
:1015600061E087E0E4D885E693E090930B028093F6
:101570000A02809169008F73806880936900EB9AFA
:101580008BE593E0909309028093080280916900B3
:101590008F7C806280936900EA9A81E593E0909362
:1015A00007028093060280916900837F88608093A0
:1015B0006900E99A87E493E090930502809304021E
:1015C000809169008C7F826080936900E89A85E051
:1015D00090E0A0E0B0E080933A0290933B02A093A9
:1015E0003C02B0933D028AE994E0909339028093E3
:1015F0003802809170008E7F809370008091B000DF
:101600008C7F8093B0008091B100877F8093B10080
:101610008091B6008F7D8093B600809170008D7FA1
:10162000809370008091B10084608093B1008091BC
:10163000B1008C7F8093B10086E090E090933F02F0
:1016400080933E0210924102109242021092430295
:10165000109244021092400280913E0290913F020B
:101660008093B2008091700081608093700008EEDA
:1016700013E0C12CD12C80E8E82E8FE3F82E412C0A
:10168000512C612C9FE3792E27E8A22EB12C31EE4C
:10169000832E912CE09169020E2E000CFF0BE05E70
:1016A000FD4F80818093680282E219D880935402B2
:1016B00083E215D88093530284E211D880935202BA
:1016C00085E20DD88093510282E209D880935002BE
:1016D00088E205D880934F0287E201D880934E02BA
:1016E00086E20E946F0380934D0281E20E946F03A5
:1016F000382F8093670280E23A830E946F03282F7D
:10170000809366028FE129830E946F03282E8093C5
:1017100065028EE10E946F03382E809364028AE294
:101720000E946F0380934C028BE20E946F038093B0
:1017300056028CE20E946F03809355028DE20E9454
:101740006F0380934B023A813003C001319F900DAB
:101750001124298134E62302800D911D1124222DAC
:101760003AE02302800D911D1124830D911D37FC59
:101770009A95909363028093620272DD8091610278
:10178000082E000C990B9093600280935F022091C9
:101790006802022E000C330B30935E0220935D0230
:1017A00020916902022E000C330B30935C022093CF
:1017B0005B0220915A02022E000C330B3093590227
:1017C000209358024DDD80915D0290915E0248DDCC
:1017D00080915B0290915C0243DD80915802909170
:1017E00059023EDD80916802813009F498C01CF4F2
:1017F000882371F0A8C0823009F496C0833009F0C4
:10180000A2C08EE091E090934A028093490292C078
:1018100084EB90E090934A0280934902C092450283
:10182000D0924602E0924702F09248029091610203
:10183000809166022091640230916702911120C06C
:10184000211108C0882331F0332331F090924A02ED
:101850008092490231112BC090916502992309F4BD
:101860007DC0222321F1B0924A02A0924902C09287
:101870004502D0924602E0924702F092480217C019
:10188000082E000C990B830F911D37FD9A9530910E
:101890006502830F911D37FD9A95820F911D27FDDB
:1018A0009A95029724F01092610210925702F091DB
:1018B0005A02E0916902AE2F0E2E000CBB0BA05E07
:1018C000BD4F1A96AC912F2F0F2E000C330B8A2F81
:1018D0000A2E000C990B01972817390741F4409202
:1018E00045025092460260924702709248028091EF
:1018F0006102882381F180915702882361F1FA17F0
:1019000054F1EF5FE09369020E2E000CFF0BE05ED6
:10191000FD4F80818093680210925A021CC0109281
:101920004A021092490206C02AE530E030934A028A
:1019300020934902C0924502D0924602E0924702AB
:10194000F092480208C0109245021092460210928E
:101950004702109248020E942A029CCE8111A7CF12
:101960002111A5CF91E09093570280915A028F5F89
:1019700080935A02909361029ACFE2E7F2E01382D9
:10198000128288EE93E0A0E0B0E084839583A68382
:10199000B78384E192E09183808385EC90E0958722
:1019A000848784EC90E09787868780EC90E0918B29
:1019B000808B81EC90E0938B828B82EC90E0958B16
:1019C000848B86EC90E0978B868B118E128E138E13
:1019D000148E0895A1E21A2EAA1BBB1BFD010DC097
:1019E000AA1FBB1FEE1FFF1FA217B307E407F507CF
:1019F00020F0A21BB30BE40BF50B661F771F881FAB
:101A0000991F1A9469F760957095809590959B0140
:101A1000AC01BD01CF010895EE0FFF1F881F8BBFE2
:101A20000790F691E02D1994D9D008F481E008953B
:101A30000CD00FC107D140F0FED030F021F45F3F51
:101A400019F0F0C0511139C1F3C014D198F39923A2
:101A5000C9F35523B1F3951B550BBB27AA27621772
:101A60007307840738F09F5F5F4F220F331F441FB7
:101A7000AA1FA9F333D00E2E3AF0E0E830D09150EF
:101A80005040E695001CCAF729D0FE2F27D0660FDC
:101A9000771F881FBB1F261737074807AB07B0E81B
:101AA00009F0BB0B802DBF01FF2793585F4F2AF031
:101AB0009E3F510568F0B6C000C15F3FECF3983E11
:101AC000DCF3869577956795B795F7959F5FC9F78E
:101AD000880F911D9695879597F90895E1E0660F17
:101AE000771F881FBB1F621773078407BA0720F090
:101AF000621B730B840BBA0BEE1F88F7E0950895F9
:101B000004D06894B111D9C00895BCD088F09F5713
:101B100090F0B92F9927B751A0F0D1F0660F771F39
:101B2000881F991F1AF0BA95C9F712C0B13081F019
:101B3000C3D0B1E00895C0C0672F782F8827B85F61
:101B400039F0B93FCCF3869577956795B395D9F77A
:101B50003EF490958095709561957F4F8F4F9F4F84
:101B60000895E89409C097FB3EF490958095709590
:101B700061957F4F8F4F9F4F9923A9F0F92F96E9D9
:101B8000BB279395F695879577956795B795F1114E
:101B9000F8CFFAF4BB0F11F460FF1BC06F5F7F4FEB
:101BA0008F4F9F4F16C0882311F096E911C07723FD
:101BB00021F09EE8872F762F05C0662371F096E806
:101BC000862F70E060E02AF09A95660F771F881FD5
:101BD000DAF7880F9695879597F90895990F000879
:101BE000550FAA0BE0E8FEEF16161706E807F907EF
:101BF000C0F012161306E407F50798F0621B730B8A
:101C0000840B950B39F40A2661F0232B242B252B0A
:101C100021F408950A2609F4A140A6958FEF811DAD
:101C2000811D089597F99F6780E870E060E008954E
:101C30009FEF80EC089500240A94161617061806E4
:101C40000906089500240A941216130614060506C0
:101C50000895092E0394000C11F4882352F0BB0F51
:101C600040F4BF2B11F460FF04C06F5F7F4F8F4FB4
:101C70009F4F089557FD9058440F551F59F05F3FEF
:101C800071F04795880F97FB991F61F09F3F79F09E
:101C900087950895121613061406551FF2CF469520
:101CA000F1DF08C0161617061806991FF1CF8695A2
:101CB0007105610508940895E894BB276627772786
:101CC000CB0197F908958ADF08F48FEF08950BD0C0
:101CD000C0CFB1DF28F0B6DF18F0952309F0A2CF0E
:101CE000A7CF1124EACFC6DFA0F3959FD1F3950FBC
:101CF00050E0551F629FF001729FBB27F00DB11D90
:101D0000639FAA27F00DB11DAA1F649F6627B00D1F
:101D1000A11D661F829F2227B00DA11D621F739F08
:101D2000B00DA11D621F839FA00D611D221F749F16
:101D30003327A00D611D231F849F600D211D822F5D
:101D4000762F6A2F11249F5750408AF0E1F08823A4
:101D50004AF0EE0FFF1FBB1F661F771F881F9150B1
:101D60005040A9F79E3F510570F05CCFA6CF5F3F72
:101D7000ECF3983EDCF3869577956795B795F795E4
:101D8000E7959F5FC1F7FE2B880F911D969587956C
:101D900097F90895DF93D92F8FD0E695D7952AED3F
:101DA0003FE049E45FE3B33A6207730784079507AE
:101DB000D7952AF0A2EA49EC906819D04ADFECE204
:101DC000F1E068D0DD0F0BF09ED0DD0F0BF49058E2
:101DD000DF91089530DF30F035DF20F031F49F3FA0
:101DE00011F41EF425CF0EF4E095E7FB1BCFE92F8D
:101DF00041DF80F3BA17620773078407950718F06D
:101E000071F49EF559CF0EF4E0950B2EBA2FA02D4C
:101E10000B01B90190010C01CA01A0011124FF2797
:101E2000591B99F0593F50F4503E68F11A16F04092
:101E3000A22F232F342F4427585FF3CF4695379591
:101E40002795A795F0405395C9F77EF41F16BA0B56
:101E5000620B730B840BBAF09150A1F0FF0FBB1F04
:101E6000661F771F881FC2F70EC0BA0F621F731F4D
:101E7000841F48F4879577956795B795F7959E3FAA
:101E800008F0B3CF9395880F08F09927EE0F979538
:101E9000879508959F938F937F936F93FF93EF930D
:101EA0009B01AC0114DFEF91FF9142D02F913F9144
:101EB0004F915F910CCFBCCEE5DEE8F3E894E0E013
:101EC000BB279F57F0F02AED3FE049EC06C0EE0F2C
:101ED000BB0F661F771F881F28F0B23A620773078F
:101EE000840728F0B25A620B730B840BE3959A9522
:101EF00072F7803830F49A95BB0F661F771F881FE2
:101F0000D2F7904809C09B01AC0160E070E080E826
:101F10009FE38ECD9F3F31F0915020F487957795C8
:101F20006795B795880F911D9695879597F90895B0
:101F3000DF93CF931F930F93FF92EF92DF927B017A
:101F40008C01689405C0DA2EEF01CDDEFE01E89425
:101F5000A5912591359145915591AEF3EF0147DF5C
:101F6000FE019701A801DA9479F7DF90EF90FF90D6
:101F70000F911F91CF91DF91089581E090E0F89447
:061F800000C0F894FFCF41
:101F86004603460346034603460346034603460303
:101F960000000000C301B5088D016B017F01090235
:101FA6000007000000000000000006090000000015
:081FB600000000000D0A00000C
:00000001FF
